:100907004C534200555342004357200052005400B5
:1009170025730056464F204D494E4920312E34004D
:100927004241374C4E4E2032303235003130302084
:1009370000314B20200031304B20003130304B004C
:10094700314D20200031302020006162630D0A0004
:100957003130005357523A2D2E2D0031332E385651
:1009670000000000000000005F0000000700070013
:10097700147F147F14242A7F2A12231308646236F3
:10098700495522500005030000001C224100004188
:10099700221C00082A1C2A0808083E0808005030B4
:1009A700000008080808080060600000201008041C
:1009B700023E5149453E00427F400042615149464F
:1009C7002141454B311814127F1027454545393CC5
:1009D7004A494930017109050336494949360649EB
:1009E70049291E003636000000563600000008145C
:1009F700224114141414144122140800020151094D
:100A070006324979413E7E1111117E7F49494936A7
:100A17003E414141227F4141221C7F494949417F53
:100A2700090901013E414151327F0808087F004111
:100A37007F41002040413F017F081422417F404011
:100A470040407F0204027F7F0408107F3E414141FE
:100A57003E7F090909063E4151215E7F0919294652
:100A6700464949493101017F01013F4040403F1F4D
:100A77002040201F7F2018207F631408146303047D
:100A87007804036151494543141414141400FCFA03
:100A9700F60E0E0E0E0E0E0E0EF6FAFC0000DF8F8F
:100AA700070000000000000000078FDF0000FF7F45
:100AB700BFC0C0C0C0C0C0C0C0BF7FFF0000000132
:100AC7000101010101010101010101000000000014
:100AD700000000000000000000F0F8FC000000002B
:100AE700000000000000000000078FDF000000008A
:100AF7000000000000000000003F7FFF0000000032
:100B070000000000000000000000000000000002DC
:100B1700060E0E0E0E0E0E0E0EF6FAFC0000C0A00C
:100B2700707070707070707070772F1F0000FF7F8B
:100B3700BFC0C0C0C0C0C0C0C0800000000000016E
:100B47000101010101010101010101000000000291
:100B5700060E0E0E0E0E0E0E0EF6FAFC000000200C
:100B670070707070707070707077AFDF0000000089
:100B770080C0C0C0C0C0C0C0C0BF7FFF00000001B0
:100B87000101010101010101010101000000FCF85F
:100B9700F00000000000000000F0F8FC00001F2F2C
:100BA70077707070707070707077AFDF0000000042
:100BB7000000000000000000003F7FFF0000000071
:100BC7000000000000000000000000000000FCFA28
:100BD700F60E0E0E0E0E0E0E0E06020000001F2F52
:100BE70077707070707070707070A0C00000000037
:100BF70080C0C0C0C0C0C0C0C0BF7FFF0000000130
:100C07000101010101010101010101000000FCFADC
:100C1700F60E0E0E0E0E0E0E0E0602000000DFAFD1
:100C270077707070707070707070A0C00000FF7F78
:100C3700BFC0C0C0C0C0C0C0C0BF7FFF00000001B0
:100C47000101010101010101010101000000000290
:100C5700060E0E0E0E0E0E0E0EF6FAFC000000002B
:100C6700000000000000000000078FDF0000000008
:100C77000000000000000000003F7FFF00000000B0
:100C87000000000000000000000000000000FCFA67
:100C9700F60E0E0E0E0E0E0E0EF6FAFC0000DFAF6D
:100CA70077707070707070707077AFDF0000FF7FC3
:100CB700BFC0C0C0C0C0C0C0C0BF7FFF0000000130
:100CC7000101010101010101010101000000FCFA1C
:100CD700F60E0E0E0E0E0E0E0EF6FAFC00001F2F6D
:100CE70077707070707070707077AFDF0000000001
:100CF70080C0C0C0C0C0C0C0C0BF7FFF000000012F
:100D070001010101010101010101010000000000D1
:100D170000000000000000000000000000000000CC
:100D2700000000060F0F0F0F060000000000000074
:100D3700000000307878787830000000000000006C
:100D4700000000000000000000000000000000009C
:100D5700000000000000000000000000000080808C
:100D670080808080808080808080808080000101FA
:100D7700010101010101010101010101010000005F
:100D8700000000000000000000000000000000005C
:100D9700000000000000000000000000000000004C
:100DA700000000000000000000000000000000003C
:100DB700000000000000000000000000000000002C
:100DC7000E0E0E0E000000000000000000000000E4
:100DD700000000000000000000000000000000000C
:100DE70000000000000000000000000000000000FC
:100DF70000000000000000000000000000000000EC
:100E070000000000000000000000000000000000DB
:100E1700000000000000000000000000000000408B
:0D0E2700E0E04000000000000000000000BE
:101786000471007A1200046D017D780E010F0004C9
:10179600120000000A011600010A00021B00016186
:1017A600CE0095007A0EE000E53878006B299802A5
:1017B60034304D2F43570000007A0C2400E59F3447
:1017C600006B93100034304D2F48460000007A0C11
:1017D6002400E5B2BC006BA6980034304D2F484675
:1017E6000000007A0C2400E5C644006BBA200034E1
:1017F600304D2F48460000007A0C2400E5FCF4002A
:101806006BF0D00034302F4654380000007A0C2498
:1018160000E85E54006E52300034302F434E5200C2
:1018260000007A0C2400E871DC006E65B8003430E4
:101836002F434E520000007A0C2400E8E70C006E9D
:10184600DAE80034302F434E520000007A0C2400B0
:10185600E948B4006F3C900034302F434E520000EC
:10186600007A0C2400E95C3C006F50180034304DBF
:101876002F54570000007A0C2400E9D16C006FC584
:10188600480034304D2F4A500000007A0C2400EAFC
:101896001F8C007013680034304D2F434E0000003B
:1018A6007A0C2400EABBCC0070AFA80034304D2F70
:1018B60054570000007A0C2401098E6C008F824870
:1018C6000034304D2F454E0000007A0C24010ADA10
:1018D600740094C5F0004E484B2F4A500000007A21
:1018E60017DC012E603400B44858014E484B2F4A8D
:1018F600500000007A152001500E7800D5F95802E4
:1019060032304D2F43570000007A17DC0150D86C57
:1019160000D6C0900132302F4654380000007A17A6
:10192600DC0152767C00D85EA00132304D2F48464D
:101936000000007A17DC0153AEFC00D99720013273
:10194600304D2F48460000007A17DC0153D60C00B4
:10195600D9BE300132304D2F48460000007A17DCE0
:101966000187421C010D2A400131362F434E520099
:1019760000010800011000010B00020D0000011714
:0B19860000010C000219000001090024
:09283D00D2B3D2B2C2B3C2B2227E
:09284600C2B2C2B3D2B2D2B32275
:0527090012270EAF05D0
:10270E00E4FEEF20E704C2B38002D2B3D2B200C21D
:10271E00B2EF25E0FF0EBE08E9D2B3D2B2A2B3E407
:04272E0033FFC2B201
:012732002284
:061EB8008F268D278B2808
:101EBE00E4F529E526D394784005E4F5260527AD0B
:101ECE0027AF2612265CE4F52975F020E528A42517
:101EDE0029F582E435F0F583E5822414F582E58355
:101EEE00340E1227EC0529E529C3940840DBE527BB
:101EFE0004122659E4F52975F020E528A42529F5C4
:101F0E0082E435F0F583E582241CF582E583340EF8
:101F1E001227EC0529E529C3940840DBE5272402A6
:101F2E00122659E4F52975F020E528A42529F58215
:101F3E00E435F0F583E5822424F582E583340E1230
:101F4E0027EC0529E529C3940840DBE5272403FD8A
:101F5E00AF2612265CE4F52975F020E528A4252984
:101F6E00F582E435F0F583E582242CF582E58334A1
:0D1F7E000E1227EC0529E529C3940840DB6D
:011F8B002233
:061DDE008F298D2A8B2BDA
:101DE400E4F52CE529D394784005E4F529052AADDA
:101DF4002AAF2912265CE4F52C75F040E52BA425C6
:101E04002CF582E435F0F583E5822494F582E583AC
:101E1400340A1227EC052CE52CC3941040DBE52A88
:101E240004FDAF2912265CE4F52C75F040E52BA4E3
:101E3400252CF582E435F0F583E58224A4F582E5CA
:101E440083340A1227EC052CE52CC3941040DBE5FF
:101E54002A2402FDAF2912265CE4F52C75F040E536
:101E64002BA4252CF582E435F0F583E58224B4F522
:101E740082E583340A1227EC052CE52CC394104028
:101E8400DBE52A2403FDAF2912265CE4F52C75F06A
:101E940040E52BA4252CF582E435F0F583E5822476
:101EA400C4F582E583340A1227EC052CE52CC3948F
:031EB4001040DB00
:011EB7002208
:102462008F268D278B28E526B40104E4FF804CE5F6
:1024720026B40208AB28AD277F10803FE526B403BF
:1024820008AB28AD277F288032E526B40408AB28A4
:10249200AD277F388025E526B40508AB28AD277F18
:1024A200488018E526B40608AB28AD277F60800B6C
:0F24B200E526B40709AB28AD277F70121DDE2287
:10281900AD0712283D7F7812270EE4FF122709021F
:0228290028463F
:0527EC00F583E493FFFA
:1027F100AD0712283D7F7812270E7F40122709026C
:02280100284667
:03000E00E4FDFE10
:10001100AB07AA06ED4C60030227F1AF03122819C2
:0100210022BC
:101CFE00E4FDFC7FAEFE120011E4FDFFFE120011AA
:101D0E007F1012000E7F4012000EE4FD7FB0FE1217
:101D1E000011E4FD7F81FE120011E4FD7FB4FE127E
:101D2E000011E4FD7FA1FE120011E4FD7FA6FE125C
:101D3E000011E4FD7FA8FE120011E4FD7F3FFE12AC
:101D4E000011E4FD7FC8FE120011E4FD7FD3FE12E8
:101D5E000011E4FDFFFE120011E4FD7FD5FE12001E
:101D6E0011E4FD7F80FE120011E4FD7F20FE1200C3
:101D7E0011E4FDFFFE120011E4FD7FD8FE120011EA
:101D8E00E4FD7F05FE120011E4FD7FD9FE12001165
:101D9E00E4FD7FF1FE120011E4FD7FDAFE12001168
:101DAE00E4FD7F12FE120011E4FD7FDBFE12001136
:101DBE00E4FD7F30FE120011E4FD7F8DFE12001156
:101DCE00E4FD7F14FE120011E4FD7FAFFE02001150
:1025E900E4F9E924B0FFE433FEE4FDFC120011E450
:1025F900FDFFFE120011E4FD7F02FE120011E4F559
:10260900227D017C00E4FFFE1200110522E522C3B0
:08261900948040ED09B908CAE4
:012621002296
:03265900FDAF26AC
:10265C00A907ED24B0FFE433FEE4FDFC120011E900
:10266C0054F0C4540F7E004410FFE4FD120011E935
:0A267C00540FFF7E00E4FD02001180
:0424C1007B20E4FD9B
:1024C500E4F52EF9F52FEB24E0F52EEFD3947F40BC
:1024D50004E4FF0D0DE52D6408702F12265CE4F968
:1024E50075F005E52EA42468F582E5F03409F58339
:1024F500E58229F582E43583F583E493FF7E007D4B
:0A250500017C0012001109B905D68F
:01250F0022A9
:092510007BFF752808E4FD7F142F
:0A2519008F238D248B258A26892745
:10252300E4F529AB25AA26A92785298275830012FC
:1025330006ADFB602085282DAD24AF231224C5747E
:10254300062523F523D394784007E4F523052405D2
:0525530024052980CEE3
:012558002260
:10255900E4FF30B50730B704F508803C20B50C30EE
:10256900B709E5087005750852802D30B50C20B7FC
:1025790009E508700575084C801E20B51B20B718A1
:10258900E508F46013E508B44C047FFF8007E5080B
:08259900B452057F017508FF33
:0125A1002217
:0427A400AC067E0001
:1027A800AB07AA0612283D7FC012270EAF031227D7
:0427B80009022846A4
:10154600E4FDFC7F0FFE1227A8E47F95FE1227A874
:10155600E47F03FE1227A87DC07FB77E001227A86E
:101566007D0D7F107E001227A87D2F7F117E001231
:1015760027A87F127E001227A87DA07FB17E0012C9
:1015860027A8E4752523F524F523F522F529F52862
:10159600F527F526752DFF752CFF752B0FF52A7F80
:1015A60080FEFDAB29AA28A927A8261206FEAB2D88
:1015B600AA2CA92BA82A120789E41202C412204CCD
:1015C600120302C004C005C006C007E47F80FEFD0A
:1015D600FCAB25AA24A923A8221206FED003D0021A
:1015E600D001D000EF2BFFEE3AFEED39FDEC38FCD2
:1015F600E42FF531EE34FEF530ED34FFF52FEC3403
:10160600FFF52EE47F80FEFDFCAB29AA28A927A8BA
:10161600261206FEAB2DAA2CA92BA82A120789E4AE
:101626001202C412204C120302AB2DAA2CA92BA81D
:101636002A1206FEC004C005C006C007E47F80FE6D
:10164600FDFCAB29AA28A927A8261206FED003D09E
:1016560002D001D000C3EF9BF535EE9AF534ED9933
:10166600F533EC98F5327DFF7C007F1A7E00122759
:10167600A87F1B7E001227A8E4FFFEE52F5403FD7A
:10168600E4781012083AAD077F1C1227A4E4FFE5A0
:1016960030FEE4FDFC780812083AAD077F1D1227DC
:1016A600A4E531FFE4FCAD077F1EFE1227A8E4FF88
:1016B600FEE533540FFDE4781012083AEF44F0FFCC
:1016C600AD07AC067F1F7E001227A8E4FFE534FEB7
:1016D600E4FDFC780812083AAD07AC067F207E00D0
:1016E6001227A8E535FFE4FCAD077F21FE1227A8E7
:1016F6007DFF7F227E001227A87F237E001227A867
:10170600E4FFFEE52F5403FDE4781012083AAD0716
:10171600AC067F247E001227A8E4FFE530FEE4FD38
:10172600FC780812083AAD07AC067F257E00122722
:10173600A8E531FFE4FCAD077F26FE1227A8E4FFEB
:10174600FEE533540FFDE4781012083AEF44F0FF3B
:10175600AD07AC067F277E001227A8E4FFE534FE1E
:10176600E4FDFC780812083AAD07AC067F287E0037
:101776001227A8E535FFE4FCAD077F29FE0227A85E
:1012A300900004E0FCA3E0FDA3E0FEA3E0F5278E9D
:0912B300268D258C247F2A7E0083
:0412BC008E228F23CC
:1012C000785512087E000FFFFFE47F23FEFDFC78B7
:1012D0006D1208591206FEE41202C4C004C005C013
:1012E00006C007AF27AE26AD25AC24E41202C4A881
:1012F00004A905AA06AB07D007D006D005D0041272
:1013000002277859120866785912084D120302789C
:101310004D120866784D12084DE41202C4C004C094
:1013200005C006C007785912084DD003D002D0017D
:10133000D000120029785D120866785512084DE435
:101340001202C4785D12085912011E12030278516C
:10135000120866E47F80FEFDFC78511208591206DF
:10136000FE7855120859120789E41202C412204C63
:10137000120302AB07AA06A905C004C005C006C037
:1013800007E47F80FEFDFC784D1208591206FED05E
:1013900003D002D001D000EF2BFFEE3AFEED39FD75
:1013A000EC38FCE42FFFEE34FEFEED34FFFDEC34B0
:1013B000FFFC7861120866E47F80FEFDFC78511224
:1013C00008591206FE7855120859120789E41202CC
:1013D000C412204C12030278551208591206FEC09E
:1013E00004C005C006C007E47F80FEFDFC785112F2
:1013F00008591206FED003D002D001D000C3EF9BE3
:10140000FFEE9AFEED99FDEC98FC7865120866787F
:101410005512084D7869120866786912084DE4FF84
:10142000E4FDFC780812083AAD07AC06AF23AE2203
:101430001227A8E5232401FFE43522FEC006C007D9
:10144000786912084DE4FCAD07D007D0061227A832
:10145000E5232402FFE43522FEC006C007786112AE
:10146000084D781012083AEF5403FFE4FCAD07D0A2
:1014700007D0061227A8E5232403FFE43522FEC087
:1014800006C007786112084DE4FFE4FDFC780812FD
:10149000083AAD07AC06D007D0061227A8E52324EA
:1014A00004FFE43522FEC006C007786112084DE44F
:1014B000FCAD07D007D0061227A8E5232405FFE4DA
:1014C0003522FEC006C007786512084D7810120854
:1014D0003AEF540FFFE4FEFDFCC004C005C006C097
:1014E00007786912084DEF54F0FFD003D002D00105
:1014F000D000EF4BFFEAFEAD07AC06D007D00612D6
:1015000027A8E5232406FFE43522FEC006C007789D
:101510006512084DE4FFE4FDFC780812083AAD07B7
:10152000AC06D007D0061227A8E5232407FFE43530
:1015300022FEC006C007786512084DE4FCAD07D056
:0615400007D0060227A8F7
:1021A000E50F14603B14606E240260030222407B42
:1021B000FF7A097907752808E4FD7F39122519E4AB
:1021C00090000CF0750F01787112084DEF2424F582
:1021D00027EE34FAF526ED34FFF525EC34FF802E9A
:1021E0007BFF7A09790B752808E4FD7F39122519E0
:1021F00090000C7401F0750F02787112084DEF24F5
:10220000DCF527EE3405F526E43DF525E43CF52420
:102210007F3A7E0080277BFF7A09790F752808E4D2
:10222000FD7F3912251990000C7402F0E4F50F754A
:102230002780752696752598F5247F3AFE1212BCE4
:01224000227B
:1026B3008F22E522700F7BFF7A097913752808FDB5
:1026C3007F09122519E522B401107BFF7A097915D8
:0B26D300752808E4FD7F09122519227C
:1022E000AB07BB0144900004E0FCA3E0FDA3E0FECB
:1022F000A3E02515FFEE3514FEED3513FDEC351288
:10230000FC900004120872900008E0FCA3E0FDA31A
:10231000E0FEA3E02515FFEE3514FEED3513FDECD0
:102320003512FC900008120872BBFF46900004E0D2
:10233000FCA3E0FDA3E0FEA3E0C39515FFEE95141A
:10234000FEED9513FDEC9512FC90000412087290BE
:102350000008E0FCA3E0FDA3E0FEA3E0C39515FFA9
:10236000EE9514FEED9513FDEC9512FC900008120D
:062370000872751601223F
:10240200BF011AD3E51C9414E51B94004007E4F5C0
:102412001BF51C8008051CE51C7002051BBFFF1B79
:10242200D3E51C9400E51B94005008751B00751C35
:10243200158008E51C151C7002151BAE1BAF1C7C19
:10244200007D151206EC74952FF974003EFA7B019B
:1024520078007C007D017E007F1512066E021AC78D
:101AC7007F807EA87D127C01900004E0F8A3E0F9F6
:101AD700A3E0FAA3E0FBD31208294004D2908002C6
:101AE700C290900000E0FCA3E0FDA3E0FEA3E0F5B8
:101AF700278E268D258C247F3A7E001212BC121267
:101B0700A37525FF752609752717752801752900FF
:101B1700752A0D7B007A00793E120E907B007A00C1
:101B2700793E752808E4FD7F5A12251990000CE0CC
:101B370014601214605824026003021BE97BFF7AC9
:101B470009790780067BFF7A09790B752808E4FD78
:101B57007F39122519787112084DEF24DCF527EE2D
:101B67003405F526E43DF525E43CF5247F3A7E006F
:101B77001212BC787112084DEF24DCF527EE3405FC
:101B8700F526E43DF525E43CF5247F32804F7BFFC5
:101B97007A09790F752808E4FD7F391225197871BC
:101BA70012084D8F278E268D258C247F3A7E0012B2
:101BB70012BC787112084D8F278E268D258C247FB5
:101BC700327E001212BC900008E0FCA3E0FDA3E007
:101BD700FEA3E0F5278E268D258C247F2A7E001212
:101BE70012BC900008E0FCA3E0FDA3E0FEA3E0FF29
:031BF7000219A030
:072686007F02E4FD12265C57
:10268D007D017C007F107E001200117D017F547E44
:10269D00001200117D017F387E001200117D017F37
:0626AD00107E0002001186
:0E199200900008E0FCA3E0FDA3E0FEA3E0FF50
:0819A0008F258E248D238C227B
:1019A8007B407A42790F7800120789784DEEF60865
:1019B800EFF6C3940AEE940050047B0D801C7B80E4
:1019C8007A9679987800AF25AE24AD23AC22120719
:1019D80089E47B0AFAF9F81207897D027F0112244B
:1019E800627B407A42790F7800AF25AE24AD23ACF4
:1019F80022120789E47B0AFAF9F81207897D027F27
:101A080002122462E4FB7D027F20121EB87BA07ABA
:101A18008679017800AF25AE24AD23AC2212078960
:101A2800E47B0AFAF9F81207897D027F031224621F
:101A3800E47B107A27F9F8AF25AE24AD23AC221247
:101A48000789E47B0AFAF9F81207897D027F0412F4
:101A58002462E47BE87A03F9F8AF25AE24AD23AC21
:101A680022120789E47B0AFAF9F81207897D027FB6
:101A780005122462E4FB7D027F58121EB8E47B64E1
:101A8800FAF9F8AF25AE24AD23AC22120789E47B1E
:101A98000AFAF9F81207897D027F06122462E47BAC
:101AA8000AFAF9F8AF25AE24AD23AC22120789E46F
:0F1AB8007B0AFAF9F81207897D027F0702246280
:102733007BFF7A09791A7528087D027F1C122519F7
:102743007BFF7A0979277528087D057F1D122519D6
:0A2753007F707E171227840225E92B
:10282B00E4FDFCC3ED9FEC9E50070DBD00010C8039
:01283B00F2AA
:01283C002279
:10278400E4FDFCC3ED9FEC9E5015E4FBFA0BBB008B
:0F279400010ABA01F8BBF4F50DBD00010C80E499
:0127A3002213
:1025A20030B413E4F50BF50DF50EE5176401703642
:1025B200F51775100122E50B702C050EE50E700261
:1025C200050DD39414E50D94004003751701D3E56E
:1025D2000E9490E50D9401400DE4F517F50DF50EFE
:0725E200750B0175100322C7
:101BFA00E51024FE605614605624026003021CFDA0
:101C0A00E50A14601A14602F24027040752D087FAB
:101C1A00021224C17F31122688750A01021CFA7544
:101C2A002D087F311224C1E4FD7F5412265C12264E
:101C3A008D750A02021CFA752D087B20E4FD7F547B
:101C4A001224C5122686E4F50A021CFA021CFAAC12
:101C5A0012AD13AE14AF151208CD1C8C0000000A89
:101C6A001C9A000000641CAA000003E81CBC0000C7
:101C7A0027101CD0000186A01CE7000F424000007C
:101C8A001CFA7A097933122510E4751564021CF4DA
:101C9A007A097938122510E47515E8751403804C11
:101CAA007BFF7A09793D122512E475151075142700
:101CBA00803A7BFF7A0979421225127515A07514AC
:101CCA008675130180127BFF7A09794712251275EE
:101CDA00154075144275130F75120080137BFF7A35
:101CEA0009794C122512E475150AF514F513F51243
:041CFA00E4F51022DB
:1027BC00AD07AC06538EEF538EF7438E048CD68D3B
:0827CC00D753AFFB438E10222E
:101F8C008F258E248D238C22AB25AA24A923A8224D
:101F9C007F007E307D2A7C00120789A804A905AA3F
:101FAC0006C3E49FF525E49AF524740199F523E41E
:101FBC0098F522E526B4020C438E01AE24AF25120F
:101FCC0027BC8027C28E538EFE438E405389BF534D
:101FDC0089CFAF25AE24AD23AC22780812083A8FF6
:101FEC008D85258BC2AB538FFDD28EE527B40110A6
:101FFC00E5A2543F4440F5A253B13F53B23F803366
:10200C00E527B40210E5A2543F4480F5A253913F5A
:10201C0053923F801EE527B40310E5A2543F44C001
:10202C00F5A253B3E753B4E7800953A23F53B1FC75
:10203C0053B2FCE598543F4440F598D2ACD29C2264
:102803001206946010D209F5992009FD740129F983
:06281300E43AFA80EB221A
:0300230002262290
:10262200C0E0C083C082C0D030981CC29874152507
:1026320018F582E43400F583E599F00518E518C32E
:1026420094804003751800309904C299C209D0D011
:07265200D082D083D0E032FA
:102241001226DE7F647E001227841220FC7F017E2D
:102251000012282B752601E4F5271F7EC27D01FCA3
:10226100121F8CD2AF7F80900015E4F0A3DFFC7FBA
:1022710080C209E4F511F5187BFF7A09795112281A
:1022810003121BFA1225598F09E50A14601D146007
:102291002A2402703AE509B401057F011222E0E522
:1022A10009F4702B7FFF1222E08024E509640160AC
:1022B10005E509B4FF191221A08014E509B401054F
:1022C1007F01122402E509B4FF057FFF122402E514
:0F22D1001660AE1212A3121992E4F516022282C1
:1026DE00E4F593F594F591F592F595F596F5B1F53A
:1026EE00B2F5B3F5B4F5C9F5CAF5CBF5CCF5E1F510
:0B26FE00E2538901758CF8758A2F22C9
:1020FC0012154678007C007D017B017A0079AA7E5E
:10210C00007F1512066E900000E0FCA3E0FDA3E03A
:10211C00FEA3E0F5278E268D258C247F327E0012BF
:10212C0012BC900000E0FCA3E0FDA3E0FEA3E0F5F0
:10213C00278E268D258C247F3A7E001212BC12121B
:10214C00A3121CFE1225E91227331219921221A098
:10215C00121AC7E4FF1226B31226867BFF7A09797E
:10216C00571225127BFF7A09795A7528087D07E4E6
:10217C00FF1225197BFF7A0979627528087D077F84
:10218C005F1225197F647E0012282BC290D2AFD229
:04219C00A9D28C2216
:03000B000227D4F5
:1027D400C0E0C0D0C28DC28C1225A2758CF8758A57
:0827E4002FD28CD0D0D0E032DE
:1000260002036EE86480F8E933E83360110460F097
:10003600ED33EC337009E8FCE9FDEAFEEBFF220440
:1000460060DED3EB9FEA9EE99DE8C2E78CF0C2F73B
:1000560095F0400CE8CCF8E9CDF9EACEFAEBCFFB07
:1000660012033985D0F05804700320D5B3E8047024
:10007600075002B2D502037892D5EC0460F7E4CCBF
:10008600C0E0C398F8603B94186008400DD0E0FBD0
:10009600020350E4FBFAC9FC8028E830E406E4C910
:1000A600FBE4CAFCE830E305E4C9CACBFCE8540724
:1000B6006010F8C3E913F9EA13FAEB13FBEC13FC2F
:1000C600D8F130F52FC3E49CFCEF9BFFEE9AFEEDD2
:1000D60099FDD0E0FBEF4E4D4C701222DB0302037C
:1000E60075EC2CFCEF33FFEE33FEED33FDED30E720
:1000F600EB020350EF2BFFEE3AFEED39FDD0E0FBAD
:1001060050130BBB0003020378ED13FDEE13FEEF55
:0801160013FFEC13FC0203507F
:10011E00EC4D6011E8497017ED33EC3304600DE4DB
:10012E00FCFFFEFD22E933E8330470F802036E1281
:10013E00033958046009E4CC248150062850090282
:10014E000378284003020375C0E0EB4A7044B9807F
:10015E0006D0E0FB020364EF4E701CBD8008EBFF7F
:10016E00EAFEE9FD80EBE98DF0A4FEE5F002020760
:10017E00E9CDF9EAFEEBFFEF89F0A4FCE5F0CE89BC
:10018E00F0A42EFFE435F0CD89F0A42DFEE435F079
:10019E008067EF4E7005BD80D780C3EF8BF0A4ACA7
:1001AE00F0EE8BF0A42CFCE435F0F8EF8AF0A42CE2
:1001BE00E5F038FCE433CB8DF0A42CFCE5F03BF8F5
:1001CE00EE8AF0A42CFCE5F038F8E433CF89F0A4E5
:1001DE002CFCE5F038CF3400CE89F0A42FFFE5F0EB
:1001EE003EFEE433C98DF0A42EFEE5F039CD8AF043
:1001FE00A42FFFE5F03EFEE43DFD33D0E0FB5007BB
:10020E000BBB000F020378EC2CFCEF33FFEE33FE3A
:06021E00ED33FD02035068
:10022400020378EC5D046005E85904700302036E70
:10023400120339580460F6EC4860F2EC7004FDFED9
:10024400FF22C860DB2481C85009C39860025006AD
:100254000203759850CAF582E9294B4A7005AB82AE
:1002640002036475F0007C1A7880C3EF9BEE9AED6C
:1002740099400DC3EF9BFFEE9AFEED99FDE842F025
:10028400DC23ACF0D0E0FFD0E0FED0E0FDAB822078
:10029400E7101BEB60BAEC2CFCEF33FFEE33FEED02
:1002A40033FD020350E803F830E705C0F075F000B1
:1002B400EF2FFFEE33FEED33FD40B830E7C280AAE6
:1002C40075F020800E75F010800575F0087D007EB5
:1002D400007F003392D530D50312081BEC33401055
:1002E400EF33FFEE33FEED33FDEC33FCD5F0ED22BE
:0E02F400E5F0247EA2D513CC92E7CDCEFF22FA
:10030200EDD2E7CD33EC3392D524814006E4FFFEF3
:10031200FDFC22FCE4CFCECDCC24E0501174FF8052
:10032200EDC3CC13CCCD13CDCE13CECF13CF0470EF
:07033200F030D5DE02081BCC
:100E3400E5392425F8E60539227822300702782599
:100E4400E475F0011208970206942000EB7F2ED27D
:100E5400008018EF540F2490D43440D4FF30040B96
:100E6400EF24BFB41A0050032461FFE53A60021571
:100E74003A053DE53D7002053C30070D7822E475E6
:100E8400F001120897EF0206DA02275D7403D20715
:100E94008003E4C207F5398B228A238924E4F53AD6
:100EA400F53CF53DE53A60077F20120E6F80F5753D
:100EB4003BFFC201C200C202C203C205C206C2088D
:100EC400120E3DFF700D3007057F00120E80AF3DFE
:100ED400AE3C22B4255FC2D5C204120E3DFF24D01D
:100EE400B40A00501A75F00A783A30D50508B6FFEE
:100EF4000106C6A426F620D5047002D20380D924A4
:100F0400CFB41A00EF5004C2E5D20402116DD2012D
:100F140080C6D20080C0D20280BCD2D580BAD205AD
:100F240080B47F20120E6F2002077401B53A00408E
:100F3400F1120E34FF120E6F020EA8D208D20680F0
:100F440095120E34FB120E34FA120E34F94A4B7019
:100F54000679647A127BFF20022EE53A602A7E002D
:100F64008E827583001206AD60060EEE653B70F04E
:100F7400C2D5EBC0E0EAC0E0E9C0E0EE1211CDD08A
:100F8400E0F9D0E0FAD0E0FB120694FF60AAEBC0CF
:100F9400E0EAC0E0E9C0E0120E6FD0E02401F9D02D
:100FA400E03400FAD0E0FBE53B0460DCD53BD980BB
:100FB40087D20280A21211B060F7E53B70010412DF
:100FC40003FCA93B600DE53B600914F53B12125785
:100FD400EF60F3EA30E702F404C3995077EAF425AA
:100FE4003B0430E701E404F53B800D1211B060C10D
:100FF400EA053B253B1203FCEA7838F630E701E4C6
:10100400253B04D53B04200501141211CDE4C0E0B6
:101014001212577838E6601320E70714F6120E57B9
:10102400802204F6D0E014C0E07F00120E57E53BA6
:101034006007120E4E153B800B300503120E4ED086
:10104400E0020EA8D0E00480C51211B060A0E53B18
:10105400041203FC7838EAF6E53B2005026001043B
:0510640024041211CD6F
:1010690074FF04C0E0121257120E57E53B20050227
:101079006003120E4ED0E0B53BE87F45120E617851
:1010890038E67F2B30E7047F2DF404C0E0120E6FA1
:10109900D0E075F00A84C0F0120E58D0E0120E5854
:1010A900020EA8791080027908C206C2088008D207
:1010B900D5790A8004790AC2D5E53B047002F53B6B
:1010C900E4FAFDFEFF120E34FC7B08200113120E18
:1010D90034FD7B1030000A120E34FE120E34FF7BF1
:1010E90020EC3382D592D55013C3E43000069FFF1C
:1010F900E49EFEE42001039DFDE49CFCE4CBF8C2E0
:1011090001EC700CCFCECDCCE824F8F870F3801741
:10111900C3EF33FFEE33FEED33FDEC33FCEB33FB72
:10112900994002FB0FD8E9EB300105F8D0E0C4483B
:10113900B201C0E00AEC4D4E4F78207B0070C2EA44
:10114900B53B0040BCC0E01211CFD0F0D0E0200187
:1011590004C4C0E0C4B201C0F0120E58D0F0D5F0FA
:10116900EB020EA81208A70F455310AC580F164CE6
:101179000F124210B04F10B84410B8490F2B43104A
:10118900BE550FEF46104D450FB9471284500F1A3F
:101199002D0F1E2E0F412B0F22230F3F20126D2AD8
:1011A9000EDA4800000F39E53BB4FF03753B061220
:1011B9000E34FC120E34FD120E34FE120E34FF787A
:1011C9003102042B790AA2D5200314300509B9107C
:1011D900020404B9080104A2D52006025001042022
:1011E90002689202B53A005034C0E07F20300319FA
:1011F9007F30A20272067205500F121226C202C275
:1012090006C205C2087F30800F300503E9C0E0122D
:101219000E6F300503D0E0F9D0E0B53ACC300517B0
:101229007F30B9100C120E6F7F583004077F788019
:1012390003B90803120E6F3002057F2D020E6F7F6E
:10124900202008F87F2B2006F322920280CF7F000E
:10125900B4070050052431F8E6FF22286E756C6C3E
:101269002900D201120E343001F8C201783A30D582
:101279000108F6020EDA2D50434958120E342403A0
:10128900B405004001E490127F93120E60743A1283
:0A1299000E60D203753A040210AC97
:10204C008F398E388D378C3674FFFFFEFDFCAB3923
:10205C00AA38A937A836C3120829602C7F807E962F
:10206C007D187C4BAB39AA38A937A836120383608C
:10207C000250157F807E967D187CCBAB39AA38A98F
:10208C0037A8361203835009AF39AE38AD37AC36AA
:10209C0022AF39AE38AD37AC361203028F3D8E3CD1
:1020AC008D3B8C3AEC1202C4C8ECC8C9EDC9CAEE1F
:1020BC00CACBEFCBAF39AE38AD37AC36120029E412
:1020CC00FBFAF9F8120383601A401874FF253DF5EA
:1020DC003DE53C34FFF53CE53B34FFF53BE53A345C
:1020EC00FFF53AAF3DAE3CAD3BAC3AEC1202C4222C
:10033900E9D2E7C933E833F892D5EDD2E7CD33EC0A
:0703490033FC5002B2D52283
:10035000EC30E7100FBF000C0EBE00080DBD00040E
:100360000BEB6014A2D5EB13FCED92E7FD2274FFBA
:10037000FCFDFEFF22E480F8A2D574FF13FC7D8013
:03038000E480EF27
:1003830074F8CC6480CCC86480C8F58204604FC321
:10039300EB9FF5F0EA9E42F0E99D42F0E89C45F0C0
:1003A300603C501DE5825FFFE582D313CB5BCBF44A
:1003B3002B5582FB50280ABA002409B90020088073
:1003C3001DE5825BFBE582D313CF5FCFF4C3132F0D
:1003D3005582FF50090EBE00050DBD00010CC3EB95
:1003E3009FF5F0EA9E42F0E99D42F0E89C45F060FB
:0903F30007CC4820E701B3EC221D
:1003FC00F920E72824F950037907E4F42402FB18C8
:10040C00DBFDE624FB5014E9600DE4F618E604F677
:0F041C00B40A08E4F6D9F57401F60A22C2D52213
:10042B00ED33EC3392D5FA602AB4FF33EDC2E77BA0
:10043B00FF60067A047950E4227A04795920D504B6
:10044B007A047954224E614E002B494E46002D49B9
:10045B004E4600E47A08F608DAFC7B00740722E8C3
:10046B00C0E0ECC0E0EDC0E0EEC0E0EFC0E0EA754C
:10047B00F010A4CAABF075F04DA42BFBE435F0FCE7
:10048B00EA2410FAEB34C5FBEC34D9FCEDC2E7FFE0
:10049B0075F056A4F42411C5F0F434C58FF0A42ADA
:1004AB00E5F03BE43CF620E71412055ED0E0FFD00C
:1004BB00E0FED0E0FDD0E0FC1202278014F4041221
:1004CB00055ED0E0FFD0E0FED0E0FDD0E0FC1201F5
:1004DB001ED0E0F8E6FAEDD2E7CD33EC332482FB05
:1004EB00E4C3CF33CFCE33CECD33CD33DBF37B076A
:1004FB0075F00A846004F6081B0AE5F0F6088FF025
:10050B00740AA4FFACF08EF0740AA42CFEACF0506D
:10051B00010C8DF0740AA42CFDE435F0F608DBDE3B
:03052B0074072230
:10052E003F8000004120000042C80000447A0000D5
:10053E00461C400047C35000497424004B18968057
:10054E004CBEBC205A0E1BCA6753C21C749DC5AE4E
:10055E00FB60065407601C232312058CEB54386095
:10056E000912057812058712011EECF8EDF9EEFA64
:10057E00EFCB22EB12058780F1543803241C900533
:10058E002EFE93FC0EEE93FD0EEE930ECE93FF22F7
:0300000002237662
:0C237600787FE4F6D8FD7581740223BD69
:10059E00E709F608DFFA8046E709F208DFFA803E3F
:1005AE0088828C83E709F0A3DFFA8032E309F6082C
:1005BE00DFFA8078E309F208DFFA807088828C8394
:1005CE00E309F0A3DFFA806489828A83E0A3F60848
:1005DE00DFFA805889828A83E0A3F208DFFA804C22
:1005EE0080D280FA80C680D4806980F280338010F9
:1005FE0080A680EA809A80A880DA80E280CA803362
:10060E0089828A83ECFAE493A3C8C582C8CCC583D9
:10061E00CCF0A3C8C582C8CCC583CCDFE9DEE780A9
:10062E000D89828A83E493A3F608DFF9ECFAA9F028
:10063E00EDFB2289828A83ECFAE0A3C8C582C8CC7E
:10064E00C583CCF0A3C8C582C8CCC583CCDFEADE97
:10065E00E880DB89828A83E493A3F208DFF980CCF9
:10066E0088F0EF60010E4E60C388F0ED2402B404F2
:10067E000050B9F582EB2402B4040050AF23234599
:06068E0082239005EE73CB
:10069400BB010689828A83E0225002E722BBFE0264
:0906A400E32289828A83E4932297
:1006AD00BB010CE58229F582E5833AF583E0225002
:1006BD0006E92582F8E622BBFE06E92582F8E2224C
:0D06CD00E58229F582E5833AF583E4932266
:1006DA00BB010689828A83F0225002F722BBFE01FF
:0206EA00F322F9
:1006EC00EF8DF0A4A8F0CF8CF0A428CE8DF0A42E22
:0206FC00FE22DC
:1006FE00E88FF0A4CC8BF0A42CFCE98EF0A42CFC9B
:10070E008AF0EDA42CFCEA8EF0A4CDA8F08BF0A418
:10071E002DCC3825F0FDE98FF0A42CCD35F0FCEB77
:10072E008EF0A4FEA9F0EB8FF0A4CFC5F02ECD393C
:0F073E00FEE43CFCEAA42DCE35F0FDE43CFC22A9
:10074D0075F008758200EF2FFFEE33FECD33CDCC63
:10075D0033CCC58233C5829BED9AEC99E5829840E6
:10076D000CF582EE9BFEED9AFDEC99FC0FD5F0D6C3
:10077D00E4CEFBE4CDFAE4CCF9A88222B800C1B9ED
:10078D000059BA002DEC8BF084CFCECDFCE5F0CB2B
:10079D00F97818EF2FFFEE33FEED33FDEC33FCEB64
:1007AD0033FB10D703994004EB99FB0FD8E5E4F91F
:1007BD00FA227818EF2FFFEE33FEED33FDEC33FC0C
:1007CD00C933C910D7059BE99A4007EC9BFCE99A00
:1007DD00F90FD8E0E4C9FAE4CCFB2275F010EF2F45
:1007ED00FFEE33FEED33FDCC33CCC833C810D70745
:1007FD009BEC9AE899400AED9BFDEC9AFCE899F880
:0E080D000FD5F0DAE4CDFBE4CCFAE4C8F92212
:0E081B00C3E49FFFE49EFEE49DFDE49CFC22EE
:10082900EB9FF5F0EA9E42F0E99D42F0E89C45F025
:01083900229C
:10083A00E8600FECC313FCED13FDEE13FEEF13FF9C
:03084A00D8F122C0
:0C084D00E6FC08E6FD08E6FE08E6FF22D7
:0D085900E6FB08E6F908E6FA08E6CBF8220F
:0C086600ECF608EDF608EEF608EFF622BE
:0C087200ECF0A3EDF0A3EEF0A3EFF022F9
:10087E00D083D082E493F608740193F60874029341
:09088E00F608740393F674047378
:10089700FAE6FB0808E6F925F0F618E6CA3AF62262
:1008A700D083D082F8E4937012740193700DA3A3E0
:1008B70093F8740193F5828883E4737402936860F4
:0608C700EFA3A3A380DFF4
:1008CD00D083D082E4937012740193700DA3A3931F
:1008DD00F8740193F5828883E4737402936C70123B
:1008ED007403936D700C7404936E70067405936F9E
:0A08FD0060DDA3A3A3A3A3A380CA98
:10275D00EFB40A07740D122768740A309811A899FE
:10276D00B8130CC2983098FDA899C298B811F630DC
:07277D0099FDC299F59922B4
:10238200022241E493A3F8E493A34003F68001F20E
:1023920008DFF48029E493A3F85407240CC8C3335C
:1023A200C4540F4420C8834004F456800146F6DF2B
:1023B200E4800B0102040810204080901786E47E1E
:1023C200019360BCA3FF543F30E509541FFEE49320
:1023D200A360010ECF54C025E060A840B8E493A3E7
:1023E200FAE493A3F8E493A3C8C582C8CAC583CA12
:1023F200F0A3C8C582C8CAC583CADFE9DEE780BECA
:011991000055
:00000001FF
