:1009BC004C534200555342004357200025730056B8
:1009CC00464F204D494E492056312E330042413777
:1009DC004C4E4E2032303235006162630D0A000EEF
:1009EC0010100E0015150A0E0AFFFFFFFFFFFF0C7B
:1009FC00121E1212000000181B0404040404031F2E
:100A0C000A0A1F0A0A0A12110A1F041F040A1100FB
:100A1C0004040404150E04000402FF020400000088
:100A2C000000000000005F00000007000700147FBA
:100A3C00147F14242A7F2A12231308646236495522
:100A4C0022500005030000001C2241000041221C22
:100A5C0000082A1C2A0808083E080800503000002C
:100A6C000808080808006060000020100804023E16
:100A7C005149453E00427F40004261514946214167
:100A8C00454B311814127F1027454545393C4A49CE
:100A9C004930017109050336494949360649492946
:100AAC001E003636000000563600000008142241A5
:100ABC0014141414144122140800020151090632B2
:100ACC004979413E7E1111117E7F494949363E419B
:100ADC004141227F4141221C7F494949417F0909FB
:100AEC0001013E414151327F0808087F00417F419E
:100AFC00002040413F017F081422417F404040408C
:100B0C007F0204027F7F0408107F3E4141413E7FFB
:100B1C00090909063E4151215E7F091929464649BA
:100B2C0049493101017F01013F4040403F1F2040B6
:100B3C00201F7F2018207F6314081463030478049B
:100B4C00036151494543141414141400FCFAF60EB5
:100B5C000E0E0E0E0E0E0EF6FAFC0000DF8F0700C6
:100B6C0000000000000000078FDF0000FF7FBFC007
:100B7C00C0C0C0C0C0C0C0BF7FFF000000010101E9
:100B8C000101010101010101010000000000000050
:100B9C0000000000000000F0F8FC00000000000065
:100BAC0000000000000000078FDF000000000000C4
:100BBC00000000000000003F7FFF0000000000006C
:100BCC000000000000000000000000000002060E03
:100BDC000E0E0E0E0E0E0EF6FAFC0000C0A070707B
:100BEC0070707070707070772F1F0000FF7FBFC027
:100BFC00C0C0C0C0C0C0C080000000000001010126
:100C0C000101010101010101010000000002060EB9
:100C1C000E0E0E0E0E0E0EF6FAFC0000002070707A
:100C2C007070707070707077AFDF0000000080C063
:100C3C00C0C0C0C0C0C0C0BF7FFF00000001010128
:100C4C00010101010101010101000000FCF8F000AB
:100C5C0000000000000000F0F8FC00001F2F77706F
:100C6C007070707070707077AFDF00000000000063
:100C7C00000000000000003F7FFF000000000000AB
:100C8C00000000000000000000000000FCFAF60E5E
:100C9C000E0E0E0E0E0E0E06020000001F2F7770A9
:100CAC007070707070707070A0C00000000080C018
:100CBC00C0C0C0C0C0C0C0BF7FFF000000010101A8
:100CCC00010101010101010101000000FCFAF60E15
:100CDC000E0E0E0E0E0E0E0602000000DFAF777029
:100CEC007070707070707070A0C00000FF7FBFC01B
:100CFC00C0C0C0C0C0C0C0BF7FFF00000001010168
:100D0C000101010101010101010000000002060EB8
:100D1C000E0E0E0E0E0E0EF6FAFC00000000000079
:100D2C0000000000000000078FDF00000000000042
:100D3C00000000000000003F7FFF000000000000EA
:100D4C00000000000000000000000000FCFAF60E9D
:100D5C000E0E0E0E0E0E0EF6FAFC0000DFAF7770C4
:100D6C007070707070707077AFDF0000FF7FBFC065
:100D7C00C0C0C0C0C0C0C0BF7FFF000000010101E7
:100D8C00010101010101010101000000FCFAF60E54
:100D9C000E0E0E0E0E0E0EF6FAFC00001F2F7770C4
:100DAC007070707070707077AFDF0000000080C0E2
:100DBC00C0C0C0C0C0C0C0BF7FFF000000010101A7
:100DCC00010101010101010101000000000000000E
:100DDC000000000000000000000000000000000007
:100DEC0000060F0F0F0F06000000000000000000AF
:100DFC0000307878787830000000000000000000A7
:100E0C0000000000000000000000000000000000D6
:100E1C0000000000000000000000000080808080C6
:100E2C008080808080808080808080000101010132
:100E3C00010101010101010101010100000000009B
:100E4C000000000000000000000000000000000096
:100E5C000000000000000000000000000000000086
:100E6C000000000000000000000000000000000076
:100E7C0000000000000000000000000000000E0E4A
:100E8C000E0E00000000000000000000000000003A
:100E9C000000000000000000000000000000000046
:100EAC000000000000000000000000000000000036
:100EBC000000000000000000000000000000000026
:100ECC000000000000000000000000000000000016
:100EDC000000000000000000000000000040E0E006
:0B0EEC004000000000000000000000BB
:101849000473007A1200046F017D780E01110004FF
:10185900140000000A011800010A00021D000161BC
:10186900CE0095007A0EE000E53878006B299802E1
:1018790034304D2F43570000007A0C2400E59F3483
:10188900006B93100034304D2F48460000007A0C4D
:101899002400E5B2BC006BA6980034304D2F4846B1
:1018A9000000007A0C2400E5C644006BBA2000341D
:1018B900304D2F48460000007A0C2400E5FCF40066
:1018C9006BF0D00034302F4654380000007A0C24D5
:1018D90000E85E54006E52300034302F434E5200FF
:1018E90000007A0C2400E871DC006E65B800343021
:1018F9002F434E520000007A0C2400E8E70C006EDA
:10190900DAE80034302F434E520000007A0C2400EC
:10191900E948B4006F3C900034302F434E52000028
:10192900007A0C2400E95C3C006F50180034304DFB
:101939002F54570000007A0C2400E9D16C006FC5C0
:10194900480034304D2F4A500000007A0C2400EA38
:101959001F8C007013680034304D2F434E00000077
:101969007A0C2400EABBCC0070AFA80034304D2FAC
:1019790054570000007A0C2401098E6C008F8248AC
:101989000034304D2F454E0000007A0C24010ADA4C
:10199900740094C5F0004E484B2F4A500000007A5D
:1019A90017DC012E603400B44858014E484B2F4AC9
:1019B900500000007A152001500E7800D5F9580220
:1019C90032304D2F43570000007A17DC0150D86C94
:1019D90000D6C0900132302F4654380000007A17E3
:1019E900DC0152767C00D85EA00132304D2F48468A
:1019F9000000007A17DC0153AEFC00D997200132B0
:101A0900304D2F48460000007A17DC0153D60C00F0
:101A1900D9BE300132304D2F48460000007A17DC1C
:101A29000187421C010D2A400131362F434E5200D5
:101A390000010800020C0000011200010B00020F56
:0F1A49000000011900010E00021B00000109003E
:10230B00E4FF30B20730B304F508803C20B20C3048
:10231B00B309E5087005750852802D30B20C20B357
:10232B0009E508700575084C801E20B21B20B318F8
:10233B00E508F46013E508B44C047FFF8007E5085B
:08234B00B452057F017508FF83
:012353002267
:0926B300D294D295C294C2952282
:0926BC00C295C294D295D2942279
:10255F00E4FEEF20E704C2948002D294D29500C229
:10256F0095EF25E0FF0EBE08E9D294D295A294E430
:04257F0033FFC295CF
:012583002235
:04261000AC067E0096
:10261400AB07AA061226B37FC012255FAF031225AB
:092624005FAF0512255F0226BC20
:10160900E4FDFC7F0FFE122614E47F95FE122614DA
:10161900E47F03FE1226147DC07FB77E00122614D4
:101629007D0D7F107E001226147D2F7F117E001202
:1016390026147F127E001226147DA07FB17E00122F
:101649002614E4752723F526F525F524F52BF52A27
:10165900F529F528752FFF752EFF752D0FF52C7FB0
:1016690080FEFDAB2BAA2AA929A82812075EAB2F59
:10167900AA2EA92DA82C1207E9E41202CC121E5E8B
:1016890012030AC004C005C006C007E47F80FEFD3E
:10169900FCAB27AA26A925A82412075ED003D002ED
:1016A900D001D000EF2BFFEE3AFEED39FDEC38FC0E
:1016B900E42FF533EE34FEF532ED34FFF531EC3439
:1016C900FFF530E47F80FEFDFCAB2BAA2AA929A8EF
:1016D9002812075EAB2FAA2EA92DA82C1207E9E420
:1016E9001202CC121E5E12030AAB2FAA2EA92DA834
:1016F9002C12075EC004C005C006C007E47F80FE47
:10170900FDFCAB2BAA2AA929A82812075ED003D071
:1017190002D001D000C3EF9BF537EE9AF536ED996B
:10172900F535EC98F5347DFF7C007F1A7E00122692
:10173900147F1B7E00122614E4FFFEE5315403FDDD
:10174900E4781012089AAD077F1C122610E4FFE511
:1017590032FEE4FDFC780812089AAD077F1D1226B7
:1017690010E533FFE4FCAD077F1EFE122614E4FFEB
:10177900FEE535540FFDE4781012089AEF44F0FFA6
:10178900AD07AC067F1F7E00122614E4FFE536FE86
:10179900E4FDFC780812089AAD07AC067F207E00AC
:1017A900122614E537FFE4FCAD077F21FE1226144B
:1017B9007DFF7F227E001226147F237E00122614CD
:1017C900E4FFFEE5315403FDE4781012089AAD07F1
:1017D900AC067F247E00122614E4FFE532FEE4FD08
:1017E900FC780812089AAD07AC067F257E00122600
:1017F90014E533FFE4FCAD077F26FE122614E4FF4F
:10180900FEE535540FFDE4781012089AEF44F0FF15
:10181900AD07AC067F277E00122614E4FFE536FEED
:10182900E4FDFC780812089AAD07AC067F287E0013
:10183900122614E537FFE4FCAD077F29FE022614C2
:10136600900004E0FCA3E0FDA3E0FEA3E0F5298ED7
:09137600288D278C267F2A7E00B9
:04137F008E248F2504
:1013830078571208DE000FFFFFE47F23FEFDFC7891
:101393006F1208B912075EE41202CCC004C005C084
:1013A30006C007AF29AE28AD27AC26E41202CCA8AD
:1013B30004A905AA06AB07D007D006D005D00412AE
:1013C300022F785B1208C6785B1208AD12030A7805
:1013D3004F1208C6784F1208ADE41202CCC004C005
:1013E30005C006C007785B1208ADD003D002D00158
:1013F300D000120031785F1208C678571208ADE4A6
:101403001202CC785F1208B912012612030A78532C
:101413001208C6E47F80FEFDFC78531208B9120758
:101423005E78571208B91207E9E41202CC121E5E65
:1014330012030AAB07AA06A905C004C005C006C06B
:1014430007E47F80FEFDFC784F1208B912075ED0D7
:1014530003D002D001D000EF2BFFEE3AFEED39FDB1
:10146300EC38FCE42FFFEE34FEFEED34FFFDEC34EC
:10147300FFFC78631208C6E47F80FEFDFC785312FC
:1014830008B912075E78571208B91207E9E4120285
:10149300CC121E5E12030A78571208B912075EC0F7
:1014A30004C005C006C007E47F80FEFDFC7853122C
:1014B30008B912075ED003D002D001D000C3EF9B5E
:1014C300FFEE9AFEED99FDEC98FC78671208C6785A
:1014D300571208AD786B1208C6786B1208ADE4FF9B
:1014E300E4FDFC780812089AAD07AC06AF25AE24DC
:1014F300122614E5252401FFE43524FEC006C007A7
:10150300786B1208ADE4FCAD07D007D006122614A1
:10151300E5252402FFE43524FEC006C007786312E4
:1015230008AD781012089AEF5403FFE4FCAD07D01E
:1015330007D006122614E5252403FFE43524FEC054
:1015430006C00778631208ADE4FFE4FDFC780812D7
:10155300089AAD07AC06D007D006122614E5252459
:1015630004FFE43524FEC006C00778631208ADE427
:10157300FCAD07D007D006122614E5252405FFE4A9
:101583003524FEC006C00778671208AD781012082C
:101593009AEF540FFFE4FEFDFCC004C005C006C073
:1015A30007786B1208ADEF54F0FFD003D002D001DF
:1015B300D000EF4BFFEAFEAD07AC06D007D0061212
:1015C3002614E5252406FFE43524FEC006C007786B
:1015D300671208ADE4FFE4FDFC780812089AAD0732
:1015E300AC06D007D006122614E5252407FFE43500
:1015F30024FEC006C00778671208ADE4FCAD07D02F
:0616030007D006022614C8
:10264A00AD07AC06538EEF538EF7438E048CD68DAE
:08265A00D753AFFB438E1022A1
:101D9E008F278E268D258C24AB27AA26A925A8242D
:101DAE007F007E307D2A7C001207E9A804A905AACF
:101DBE0006C3E49FF527E49AF526740199F525E408
:101DCE0098F524E528B4020C438E01AE26AF2712F7
:101DDE00264A8027C28E538EFE438E405389BF53B0
:101DEE0089CFAF27AE26AD25AC24780812089A8F7E
:101DFE008D85278BC2AB538FFDD28EE529B4011092
:101E0E00E5A2543F4440F5A253B13F53B23F803355
:101E1E00E529B40210E5A2543F4480F5A253913F48
:101E2E0053923F801EE529B40310E5A2543F44C0EF
:101E3E00F5A253B3E753B4E7800953A23F53B1FC65
:101E4E0053B2FCE598543F4440F598D2ACD29C2254
:10267A001206BE6010D209F5992009FD740129F9E4
:06268A00E43AFA80EB22A5
:0300230002242094
:10242000C0E0C083C082C0D030981CC2987415250B
:102430001AF582E43400F583E599F0051AE51AC32C
:1024400094804003751A00309904C299C209D0D013
:07245000D082D083D0E032FE
:0700030043BC8643DE2F22FF
:05002600AE0CAF0D223D
:03002B000224E8C4
:1024E800C0E0C0D075D000C00753BCDFAFBD750CCD
:1024F800008F0DE50D750D00F50CAFBEEF420D43D5
:09250800BC47D007D0D0D0E0326E
:10239B00C3EE64809480500FE4FCFD0DBD00010C76
:1023AB00ED641E4C70F522EF4E700EFCFD0DBD0062
:1023BB00010CED64B64C70F522EF4E6015E4FBFAA0
:1023CB000BBB00010ABA0BF8BBB8F5EF1F70EA1E86
:0223DB0080E799
:0123DD0022DD
:0621F3007B057D307F0436
:1021F9008F2B8B2CA905C2B7E52B75F00212069C13
:10220900AFF0EF24FF92B5E9A2E492A4A2E592A56A
:10221900A2E692A63392A7D2B7E4FFFE12239BC28D
:10222900B7E52BB40402801CE91392A4E9A2E19258
:10223900A5A2E292A6A2E392A7D2B774FFFFFE126B
:0F224900239BC2B7AF2CEF3395E0FE12239B22ED
:082511008E298F2A8C2B8D2CE2
:102519007F017E00E4FBEBC3952CE52B6480F87406
:0E2529008098500AAC29AD2A1207160B80E8E4
:012537002281
:1026A200EF7005FB7D0C8004E4FB7D0EFF1221F927
:0126B2002205
:1025CD00E4FB7D40FF1221F9E4F524E5249009EBAD
:1025DD0093FDE4FB7F011221F90524E524C394400A
:0225ED0040E9C3
:0125EF0022C9
:1023DE007F147E0012239B7B091221F51221F3122A
:1023EE0021F37B057D207F041221F97B057D28E4F6
:1023FE00FF1221F97B057D0CE4FF1221F97B057D8F
:10240E0080E4FF1221F97B057D01E4FF1221F90220
:02241E0025CDCA
:0A258400AC07AF057E00AD047C003B
:10258E008E298F2AED64014C7005EF24808004E5BE
:0B259E002A24C0FDE4FBFF1221F922FB
:0926C5007B027D01E4FF0221F912
:06000E007B07E4FD7F0208
:0E0014008B28122584E4FBAD287F010221F920
:1024BB008B28122584E4FDFC7F0AFE122511AD2822
:1024CB007C00CFCDCFCECCCE1207287C007D0A125C
:0D24DB000728ED2430FDE4FB7F010221F90C
:0A2457007A0979C47BFF7D037F0141
:102461008B248A258926122584AB24AA25A9261224
:1024710006BEFD6014E4FB7F011221F974012526DB
:0A248100F526E43525F52580E0225C
:10217200E51114602F14605B240270747A0979BC33
:1021820012245BE490000CF075110178731208AD13
:10219200EF2424F529EE34FAF528ED34FFF527EC87
:1021A20034FF80277BFF7A0979C012245D90000CEE
:1021B2007401F075110278731208ADEF24DCF52971
:1021C200EE3405F528E43DF527E43CF5267F3A7E1A
:1021D20000801A12245790000C7402F0E4F5117575
:1021E2002980752896752798F5267F3AFE12137F67
:0121F20022CA
:10262D008F24E52470087B52FD7F01120014E524F0
:0D263D00B401097B54E4FD7F01120014225A
:10205000AB07BB0144900004E0FCA3E0FDA3E0FE5D
:10206000A3E02517FFEE3516FEED3515FDEC351412
:10207000FC9000041208D2900008E0FCA3E0FDA34D
:10208000E0FEA3E02517FFEE3516FEED3515FDEC5D
:102090003514FC9000081208D2BBFF46900004E003
:1020A000FCA3E0FDA3E0FEA3E0C39517FFEE9516A9
:1020B000FEED9515FDEC9514FC9000041208D290ED
:1020C0000008E0FCA3E0FDA3E0FEA3E0C39517FF3A
:1020D000EE9516FEED9515FDEC9514FC900008129A
:0620E00008D27518012270
:10225800BF011AD3E51E9414E51D94004007E4F568
:102268001DF51E8008051EE51E7002051DBFFF1B1B
:10227800D3E51E9400E51D94005008751D00751ED9
:10228800158008E51E151E7002151DAE1DAF1E7CBB
:10229800007D1512071674952FF974003EFA7B011C
:1022A80078007C007D017E007F15120676021B9562
:101B95007F807EA87D127C01900004E0F8A3E0F927
:101BA500A3E0FAA3E0FBD31208894004D290800297
:101BB500C290900000E0FCA3E0FDA3E0FEA3E0F5E9
:101BC500298E288D278C267F3A7E0012137F1213CB
:101BD500667527FF7528097529C8752A01752B00B3
:101BE500752C0D7B007A007940120F537B007A002B
:101BF50079407D087F0112246190000CE014601289
:101C050014605124026003021CA07BFF7A0979BC91
:101C150080067BFF7A0979C012245D78731208ADBE
:101C2500EF24DCF529EE3405F528E43DF527E43C01
:101C3500F5267F3A7E0012137F78731208ADEF24E4
:101C4500DCF529EE3405F528E43DF527E43CF526D9
:101C55007F32804212245778731208AD8F298E285F
:101C65008D278C267F3A7E0012137F78731208AD7C
:101C75008F298E288D278C267F327E0012137F9028
:101C85000008E0FCA3E0FDA3E0FEA3E0F5298E2813
:101C95008D278C267F2A7E0012137F900008E0FC9A
:0C1CA500A3E0FDA3E0FEA3E0FF021A672D
:0E1A5900900008E0FCA3E0FDA3E0FEA3E0FF88
:081A67008F278E268D258C24AB
:101A6F007B407A42790F78001207E9784FEEF6083B
:101A7F00EFF6C3940AEE9400500B7B207D017F029A
:101A8F0012001480237B807A9679987800AF27AE66
:101A9F0026AD25AC241207E9E47B0AFAF9F8120700
:101AAF00E97D017F021224BB7B407A42790F7800D7
:101ABF00AF27AE26AD25AC241207E9E47B0AFAF96D
:101ACF00F81207E97D027F021224BB7B2E7D037F74
:101ADF00021200147BA07A8679017800AF27AE2618
:101AEF00AD25AC241207E9E47B0AFAF9F81207E9ED
:101AFF007D047F021224BBE47B107A27F9F8AF270D
:101B0F00AE26AD25AC241207E9E47B0AFAF9F812E8
:101B1F0007E97D057F021224BBE47BE87A03F9F81D
:101B2F00AF27AE26AD25AC241207E9E47B0AFAF9FC
:101B3F00F81207E97D067F021224BB7B2E7D077FFB
:101B4F0002120014E47B64FAF9F8AF27AE26AD2534
:101B5F00AC241207E9E47B0AFAF9F81207E97D08C9
:101B6F007F021224BBE47B0AFAF9F8AF27AE26AD49
:101B7F0025AC241207E9E47B0AFAF9F81207E97D8C
:061B8F00097F020224BBE5
:1025A9007BFF7A0979CBE4FD7F011224617BFF7AF5
:1025B9000979D9E4FD7F021224617F707E17122503
:0425C900F00226C531
:10269000E4FDFCC3ED9FEC9E50070DBD00010C80D6
:0126A000F247
:0126A1002216
:1025F000E4FDFCC3ED9FEC9E5015E4FBFA0BBB0021
:0F260000010ABA01F8BBF4F50DBD00010C80E42E
:01260F0022A8
:1023540030B413E4F50BF50FF510E519640170368C
:10236400F51975120122E50B702C0510E5107002A9
:10237400050FD39414E50F94004003751901D3E5B8
:10238400109490E50F9401400DE4F519F50FF51044
:07239400750B017512032215
:1022B800AC14AD15AE16AF1712092D22EB000000B5
:1022C8000A22EF0000006422F3000003E822F7006E
:1022D80000271022FB000186A022FF000F424000C9
:1022E80000230A7D0980127D08800E7D06800A7D04
:1022F8000580067D0480027D027C007F027E00123C
:03230800258E22FD
:101CB100E51224FE606314606424026003021D9D2A
:101CC100E50A14601F1460382402704D7B077D0201
:101CD1007F011200147B20120010E4FF1226A2756E
:101CE1000A018035E4FF1226A27B077D077F0112DE
:101CF10000147B207D027F01120014750A028019F5
:101D01007F011226A212000E7B207D077F011200A7
:101D1100141222B8E4F50A8000E4F51222AC14ADE5
:101D210015AE16AF1712092D1D510000000A1D62D4
:101D3100000000641D6B000003E81D740000271003
:101D41001D7F000186A01D8D000F424000001D97E0
:101D51007D097C007F027E0012258EE47517648068
:101D61002FE47517E87516038028E47517107516AA
:101D710027801F7517A075168675150180097517BF
:101D81004075164275150F751400800AE475170A1F
:0D1D9100F516F515F514E4F5121222B8222E
:101F0E0012248B7F647E001225F0121FB97F017E92
:101F1E0000122690752801E4F5291F7EC27D01FC72
:101F2E00121D9ED2AF7F80900015E4F0A3DFFC7FE0
:101F3E0080C209E4F513F51A7BFF7A0979E51226BA
:101F4E007A121CB112230B8F09E50A14601D14605E
:101F5E002A2402703AE509B401057F01122050E5EA
:101F6E0009F4702B7FFF1220508024E50964016074
:101F7E0005E509B4FF191221728014E509B40105B3
:101F8E007F01122258E509B4FF057FFF122258E5A2
:101F9E0018600C121366121A59E4F5181222B87F43
:0B1FAE00061200268E228F23021F4F18
:10248B00E4F593F594F591F592F595F596F5B1F58F
:10249B00B2F5B3F5B4F5C9F5CAF5CBF5CCF5E1F565
:1024AB00E2F5927591C0538901758CF8758A2F22CC
:101FB90012160978007C007D017B017A0079AA7EDE
:101FC900007F15120676900000E0FCA3E0FDA3E077
:101FD900FEA3E0F5298E288D278C267F327E0012FC
:101FE900137F900000E0FCA3E0FDA3E0FEA3E0F571
:101FF900298E288D278C267F3A7E0012137F121393
:1020090066C2B61223DE1200031225A9121A59124A
:102019002172121B95E4FF12262D7B017D0F7F0192
:102029001200147B027D0B7F0212001412000E7F36
:10203900011226A21222B87F647E00122690C29055
:07204900D2AFD2A9D28C2214
:03000B0002266268
:10266200C0E0C0D0C28DC28C122354758CF8758A1A
:082672002FD28CD0D0D0E03251
:10002E00020376E86480F8E933E83360110460F087
:10003E00ED33EC337009E8FCE9FDEAFEEBFF220438
:10004E0060DED3EB9FEA9EE99DE8C2E78CF0C2F733
:10005E0095F0400CE8CCF8E9CDF9EACEFAEBCFFBFF
:10006E0012034185D0F05804700320D5B3E8047014
:10007E00075002B2D502038092D5EC0460F7E4CCAF
:10008E00C0E0C398F8603B94186008400DD0E0FBC8
:10009E00020358E4FBFAC9FC8028E830E406E4C900
:1000AE00FBE4CAFCE830E305E4C9CACBFCE854071C
:1000BE006010F8C3E913F9EA13FAEB13FBEC13FC27
:1000CE00D8F130F52FC3E49CFCEF9BFFEE9AFEEDCA
:1000DE0099FDD0E0FBEF4E4D4C701222DB03020374
:1000EE007DEC2CFCEF33FFEE33FEED33FDED30E710
:1000FE00EB020358EF2BFFEE3AFEED39FDD0E0FB9D
:10010E0050130BBB0003020380ED13FDEE13FEEF45
:08011E0013FFEC13FC0203586F
:10012600EC4D6011E8497017ED33EC3304600DE4D3
:10013600FCFFFEFD22E933E8330470F80203761271
:10014600034158046009E4CC248150062850090272
:10015600038028400302037DC0E0EB4A7044B98067
:1001660006D0E0FB02036CEF4E701CBD8008EBFF6F
:10017600EAFEE9FD80EBE98DF0A4FEE5F002020F50
:10018600E9CDF9EAFEEBFFEF89F0A4FCE5F0CE89B4
:10019600F0A42EFFE435F0CD89F0A42DFEE435F071
:1001A6008067EF4E7005BD80D780C3EF8BF0A4AC9F
:1001B600F0EE8BF0A42CFCE435F0F8EF8AF0A42CDA
:1001C600E5F038FCE433CB8DF0A42CFCE5F03BF8ED
:1001D600EE8AF0A42CFCE5F038F8E433CF89F0A4DD
:1001E6002CFCE5F038CF3400CE89F0A42FFFE5F0E3
:1001F6003EFEE433C98DF0A42EFEE5F039CD8AF03B
:10020600A42FFFE5F03EFEE43DFD33D0E0FB5007B2
:100216000BBB000F020380EC2CFCEF33FFEE33FE2A
:06022600ED33FD02035858
:10022C00020380EC5D046005E85904700302037658
:10023C00120341580460F6EC4860F2EC7004FDFEC9
:10024C00FF22C860DB2481C85009C39860025006A5
:10025C0002037D9850CAF582E9294B4A7005AB829E
:10026C0002036C75F0007C1A7880C3EF9BEE9AED5C
:10027C0099400DC3EF9BFFEE9AFEED99FDE842F01D
:10028C00DC23ACF0D0E0FFD0E0FED0E0FDAB822070
:10029C00E7101BEB60BAEC2CFCEF33FFEE33FEEDFA
:1002AC0033FD020358E803F830E705C0F075F000A1
:1002BC00EF2FFFEE33FEED33FD40B830E7C280AADE
:1002CC0075F020800E75F010800575F0087D007EAD
:1002DC00007F003392D530D50312087BEC334010ED
:1002EC00EF33FFEE33FEED33FDEC33FCD5F0ED22B6
:0E02FC00E5F0247EA2D513CC92E7CDCEFF22F2
:10030A00EDD2E7CD33EC3392D524814006E4FFFEEB
:10031A00FDFC22FCE4CFCECDCC24E0501174FF804A
:10032A00EDC3CC13CCCD13CDCE13CECF13CF0470E7
:07033A00F030D5DE02087B64
:100EF700E53B2427F8E6053B2278243007027827CC
:100F0700E475F0011208F70206BE2000EB7F2ED22F
:100F1700008018EF540F2490D43440D4FF30040BD2
:100F2700EF24BFB41A0050032461FFE53C600215AB
:100F37003C053FE53F7002053E30070D7824E47518
:100F4700F0011208F7EF0207040225387403D207ED
:100F57008003E4C207F53B8B248A258926E4F53C08
:100F6700F53EF53FE53C60077F20120F3280F575AF
:100F77003DFFC201C200C202C203C205C206C208C7
:100F8700120F00FF700D3007057F00120F43AF3FB0
:100F9700AE3E22B4255FC2D5C204120F00FF24D093
:100FA700B40A00501A75F00A783C30D50508B6FF28
:100FB7000106C6A426F620D5047002D20380D924E0
:100FC700CFB41A00EF5004C2E5D204021230D201A6
:100FD70080C6D20080C0D20280BCD2D580BAD205EA
:100FE70080B47F20120F322002077401B53C004005
:100FF700F1120EF7FF120F32020F6BD208D20680E2
:1010070095120EF7FB120EF7FA120EF7F94A4B700C
:101017000679277A137BFF20022EE53C602A7E00A3
:101027008E827583001206D760060EEE653D70F05E
:10103700C2D5EBC0E0EAC0E0E9C0E0EE121290D002
:10104700E0F9D0E0FAD0E0FB1206BEFF60AAEBC0E1
:10105700E0EAC0E0E9C0E0120F32D0E02401F9D0A5
:10106700E03400FAD0E0FBE53D0460DCD53DD980F3
:1010770087D20280A212127360F7E53D7001041255
:101087000404A93D600DE53D600914F53D12131AEE
:10109700EF60F3EA30E702F404C3995077EAF425E6
:1010A7003D0430E701E404F53D800D12127360C181
:1010B700EA053D253D120404EA783AF630E701E4F3
:1010C700253D04D53D0420050114121290E4C0E02B
:1010D70012131A783AE6601320E70714F6120F1A6C
:1010E700802204F6D0E014C0E07F00120F1AE53D1D
:1010F7006007120F11153D800B300503120F11D039
:10110700E0020F6BD0E00480C512127360A0E53DCA
:1011170004120404783AEAF6E53D2005026001046A
:051127002404121290E7
:10112C0074FF04C0E012131A120F1AE53D200502D9
:10113C006003120F11D0E0B53DE87F45120F247803
:10114C003AE67F2B30E7047F2DF404C0E0120F3217
:10115C00D0E075F00A84C0F0120F1BD0E0120F1B08
:10116C00020F6B791080027908C206C2088008D27F
:10117C00D5790A8004790AC2D5E53D047002F53DA3
:10118C00E4FAFDFEFF120EF7FC7B08200113120E91
:10119C00F7FD7B1030000A120EF7FE120EF7FF7BE4
:1011AC0020EC3382D592D55013C3E43000069FFF58
:1011BC00E49EFEE42001039DFDE49CFCE4CBF8C21C
:1011CC0001EC700CCFCECDCCE824F8F870F380177E
:1011DC00C3EF33FFEE33FEED33FDEC33FCEB33FBAF
:1011EC00994002FB0FD8E9EB300105F8D0E0C44878
:1011FC00B201C0E00AEC4D4E4F78207B0070C2EA81
:10120C00B53D0040BCC0E0121292D0F0D0E02001FD
:10121C0004C4C0E0C4B201C0F0120F1BD0F0D5F072
:10122C00EB020F6B120907100853116F580FD94CB2
:10123C000FD54211734F117B44117B490FEE4311B3
:10124C00815510B246111045107C471347500FDDE5
:10125C002D0FE12E10042B0FE52310022013302A42
:10126C000F9D4800000FFCE53DB4FF03753D0612D1
:10127C000EF7FC120EF7FD120EF7FE120EF7FF78AA
:10128C0033020433790AA2D5200314300509B910AE
:10129C00020404B9080104A2D5200602500104205E
:1012AC0002689202B53C005034C0E07F2030031934
:1012BC007F30A20272067205500F1212E9C202C2EE
:1012CC0006C205C2087F30800F300503E9C0E0126A
:1012DC000F32300503D0E0F9D0E0B53CCC30051727
:1012EC007F30B9100C120F327F583004077F788092
:1012FC0003B90803120F323002057F2D020F327F23
:10130C00202008F87F2B2006F322920280CF7F004A
:10131C00B4070050052433F8E6FF22286E756C6C78
:10132C002900D201120EF73001F8C201783C30D5F9
:10133C000108F6020F9D2D50434958120EF7240355
:10134C00B405004001E490134293120F23743A1237
:0A135C000F23D203753C0402116F49
:101E5E008F3B8E3A8D398C3874FFFFFEFDFCAB3B09
:101E6E00AA3AA939A838C3120889602C7F807E96B9
:101E7E007D187C4BAB3BAA3AA939A83812038B606C
:101E8E000250157F807E967D187CCBAB3BAA3AA97B
:101E9E0039A83812038B5009AF3BAE3AAD39AC3886
:101EAE0022AF3BAE3AAD39AC3812030A8F3F8E3EAD
:101EBE008D3D8C3CEC1202CCC8ECC8C9EDC9CAEE03
:101ECE00CACBEFCBAF3BAE3AAD39AC38120031E4F2
:101EDE00FBFAF9F812038B601A401874FF253FF5D0
:101EEE003FE53E34FFF53EE53D34FFF53DE53C3440
:101EFE00FFF53CAF3FAE3EAD3DAC3CEC1202CC220A
:10034100E9D2E7C933E833F892D5EDD2E7CD33EC02
:0703510033FC5002B2D5227B
:10035800EC30E7100FBF000C0EBE00080DBD000406
:100368000BEB6014A2D5EB13FCED92E7FD2274FFB2
:10037800FCFDFEFF22E480F8A2D574FF13FC7D800B
:03038800E480EF1F
:10038B0074F8CC6480CCC86480C8F58204604FC319
:10039B00EB9FF5F0EA9E42F0E99D42F0E89C45F0B8
:1003AB00603C501DE5825FFFE582D313CB5BCBF442
:1003BB002B5582FB50280ABA002409B9002008806B
:1003CB001DE5825BFBE582D313CF5FCFF4C3132F05
:1003DB005582FF50090EBE00050DBD00010CC3EB8D
:1003EB009FF5F0EA9E42F0E99D42F0E89C45F060F3
:0903FB0007CC4820E701B3EC2215
:10040400F920E72824F950037907E4F42402FB18BF
:10041400DBFDE624FB5014E9600DE4F618E604F66F
:0F042400B40A08E4F6D9F57401F60A22C2D5220B
:10043300ED33EC3392D5FA602AB4FF33EDC2E77B98
:10044300FF60067A047958E4227A04796120D5049E
:100453007A04795C224E614E002B494E46002D49A9
:100463004E4600E47A08F608DAFC7B00740722E8BB
:10047300C0E0ECC0E0EDC0E0EEC0E0EFC0E0EA7544
:10048300F010A4CAABF075F04DA42BFBE435F0FCDF
:10049300EA2410FAEB34C5FBEC34D9FCEDC2E7FFD8
:1004A30075F056A4F42411C5F0F434C58FF0A42AD2
:1004B300E5F03BE43CF620E714120566D0E0FFD0FC
:1004C300E0FED0E0FDD0E0FC12022F8014F4041211
:1004D3000566D0E0FFD0E0FED0E0FDD0E0FC1201E5
:1004E30026D0E0F8E6FAEDD2E7CD33EC332482FBF5
:1004F300E4C3CF33CFCE33CECD33CD33DBF37B0762
:1005030075F00A846004F6081B0AE5F0F6088FF01C
:10051300740AA4FFACF08EF0740AA42CFEACF05065
:10052300010C8DF0740AA42CFDE435F0F608DBDE33
:0305330074072228
:100536003F8000004120000042C80000447A0000CD
:10054600461C400047C35000497424004B1896804F
:100556004CBEBC205A0E1BCA6753C21C749DC5AE46
:10056600FB60065407601C2323120594EB54386085
:100576000912058012058F120126ECF8EDF9EEFA44
:10058600EFCB22EB12058F80F1543803241C900523
:1005960036FE93FC0EEE93FD0EEE930ECE93FF22E7
:030000000220E6F5
:0C20E600787FE4F6D8FD75817602212D8C
:1005A600E709F608DFFA8046E709F208DFFA803E37
:1005B60088828C83E709F0A3DFFA8032E309F60824
:1005C600DFFA8078E309F208DFFA807088828C838C
:1005D600E309F0A3DFFA806489828A83E0A3F60840
:1005E600DFFA805889828A83E0A3F208DFFA804C1A
:1005F60080D280FA80C680D4806980F280338010F1
:1006060080A680EA809A80A880DA80E280CA803359
:1006160089828A83ECFAE493A3C8C582C8CCC583D1
:10062600CCF0A3C8C582C8CCC583CCDFE9DEE780A1
:100636000D89828A83E493A3F608DFF9ECFAA9F020
:10064600EDFB2289828A83ECFAE0A3C8C582C8CC76
:10065600C583CCF0A3C8C582C8CCC583CCDFEADE8F
:10066600E880DB89828A83E493A3F208DFF980CCF1
:1006760088F0EF60010E4E60C388F0ED2402B404EA
:100686000050B9F582EB2402B4040050AF23234591
:0606960082239005F673BB
:10069C00C2D530F707B2D563F0FF05F030E70CB2E6
:1006AC00D5F4048463F0FF05F080018430D502F4A6
:0206BC00042216
:1006BE00BB010689828A83E0225002E722BBFE023A
:0906CE00E32289828A83E493226D
:1006D700BB010CE58229F582E5833AF583E02250D8
:1006E70006E92582F8E622BBFE06E92582F8E22222
:0D06F700E58229F582E5833AF583E493223C
:10070400BB010689828A83F0225002F722BBFE01D4
:02071400F322CE
:10071600EF8DF0A4A8F0CF8CF0A428CE8DF0A42EF7
:02072600FE22B1
:10072800C2D5EC30E709B2D5E4C39DFDE49CFCEEEC
:1007380030E715B2D5E4C39FFFE49EFE120967C3F4
:10074800E49DFDE49CFC800312096730D507C3E4EF
:060758009FFFE49EFE225B
:10075E00E88FF0A4CC8BF0A42CFCE98EF0A42CFC3A
:10076E008AF0EDA42CFCEA8EF0A4CDA8F08BF0A4B8
:10077E002DCC3825F0FDE98FF0A42CCD35F0FCEB17
:10078E008EF0A4FEA9F0EB8FF0A4CFC5F02ECD39DC
:0F079E00FEE43CFCEAA42DCE35F0FDE43CFC2249
:1007AD0075F008758200EF2FFFEE33FECD33CDCC03
:1007BD0033CCC58233C5829BED9AEC99E582984086
:1007CD000CF582EE9BFEED9AFDEC99FC0FD5F0D663
:1007DD00E4CEFBE4CDFAE4CCF9A88222B800C1B98D
:1007ED000059BA002DEC8BF084CFCECDFCE5F0CBCB
:1007FD00F97818EF2FFFEE33FEED33FDEC33FCEB04
:10080D0033FB10D703994004EB99FB0FD8E5E4F9BE
:10081D00FA227818EF2FFFEE33FEED33FDEC33FCAB
:10082D00C933C910D7059BE99A4007EC9BFCE99A9F
:10083D00F90FD8E0E4C9FAE4CCFB2275F010EF2FE4
:10084D00FFEE33FEED33FDCC33CCC833C810D707E4
:10085D009BEC9AE899400AED9BFDEC9AFCE899F81F
:0E086D000FD5F0DAE4CDFBE4CCFAE4C8F922B2
:0E087B00C3E49FFFE49EFEE49DFDE49CFC228E
:10088900EB9FF5F0EA9E42F0E99D42F0E89C45F0C5
:01089900223C
:10089A00E8600FECC313FCED13FDEE13FEEF13FF3C
:0308AA00D8F12260
:0C08AD00E6FC08E6FD08E6FE08E6FF2277
:0D08B900E6FB08E6F908E6FA08E6CBF822AF
:0C08C600ECF608EDF608EEF608EFF6225E
:0C08D200ECF0A3EDF0A3EEF0A3EFF02299
:1008DE00D083D082E493F608740193F608740293E1
:0908EE00F608740393F674047318
:1008F700FAE6FB0808E6F925F0F618E6CA3AF62202
:10090700D083D082F8E4937012740193700DA3A37F
:1009170093F8740193F5828883E473740293686093
:06092700EFA3A3A380DF93
:10092D00D083D082E4937012740193700DA3A393BE
:10093D00F8740193F5828883E4737402936C7012DA
:10094D007403936D700C7404936E70067405936F3D
:0A095D0060DDA3A3A3A3A3A380CA37
:10253800EFB40A07740D122543740A309811A8994C
:10254800B8130CC2983098FDA899C298B811F63003
:0725580099FDC299F59922DB
:1020F200021F0EE493A3F8E493A34003F68001F2D7
:1021020008DFF48029E493A3F85407240CC8C333EE
:10211200C4540F4420C8834004F456800146F6DFBD
:10212200E4800B0102040810204080901849E47EEC
:10213200019360BCA3FF543F30E509541FFEE493B2
:10214200A360010ECF54C025E060A840B8E493A379
:10215200FAE493A3F8E493A3C8C582C8CAC583CAA4
:10216200F0A3C8C582C8CAC583CADFE9DEE780BE5C
:011A5800008D
:10096700BC000BBE0029EF8DF084FFADF022E4CC74
:10097700F875F008EF2FFFEE33FEEC33FCEE9DEC3D
:10098700984005FCEE9DFE0FD5F0E9E4CEFD22ED83
:10099700F8F5F0EE8420D21CFEADF075F008EF2FCD
:1009A700FFED33FD4007985006D5F0F222C398FDBE
:0509B7000FD5F0EA225B
:00000001FF
