:101507002564002E0025332E326400202564002533
:10151700303364004C324E204444532056312E3031
:10152700006279204241374C4E4E004C324E203EED
:10153700204C53420052783A00436F6E66696775D4
:1015470072653A005854414C283235293A203235D1
:101557006D687A005854414C283235293A20323781
:0F1567006D687A00256300555342004C534200D3
:10175800010F00010800040B0000000A0109000144
:021768000A0075
:09176B00D286D285C286C2852215
:09177400C285C286D285D286220C
:1016E400E4FEEF20E704C2868002D286D285C2855A
:1016F400EF25E0FF0EBE08EAD286D285A286E43347
:03170400FFC2859C
:0117070022BF
:04172600AC067E008F
:10172A00AB07AA0612176B7FC01216E4AF03121694
:09173A00E4AF051216E402177475
:10169600E4FDFCC3ED9FEE6480F8EC648098501680
:1016A600E4FBFA000BBB00010ABA08F7BB90F40D85
:0616B600BD00010C80DD07
:0116BC00220B
:100BAE007DD27C007FB77E0012172A7D537F027E96
:100BBE000012172AE4FD7F03FE12172A7D207F0400
:100BCE007E0012172A7D0F7F107E0012172A7F11CA
:100BDE007E0012172A7F127E0012172A7D8C7F1339
:100BEE007E0012172A7F147E0012172A7F157E00B0
:100BFE0012172A7F167E0012172A7F177E001217F1
:100C0E002A7DA07FB17E0012172AE4754D1AF54C8D
:100C1E00F54BF54AF551F550F54FF54E7555FF75F7
:100C2E0054FF75530FF5527F80FEFDAB51AA50A9AC
:100C3E004FA84E12057CAB55AA54A953A8521206C2
:100C4E0007C004C005C006C007E47F80FEFDFCABF4
:100C5E004DAA4CA94BA84A12057CD003D002D00154
:100C6E00D000EF2BFFEE3AFEED39FDEC38FCE42F11
:100C7E00F559EE34FEF558ED34FFF557EC34FFF52B
:100C8E0056E47F80FEFDFCAB51AA50A94FA84E1230
:100C9E00057CAB55AA54A953A852120607AB55AA08
:100CAE0054A953A85212057CC004C005C006C00743
:100CBE00E47F80FEFDFCAB51AA50A94FA84E120551
:100CCE007CD003D002D001D000C3EF9BF55DEE9A2D
:100CDE00F55CED99F55BEC98F55A85556185546098
:100CEE0085535F85525EE4FDFC7F1AFE12172A7D46
:100CFE00FF7F1B7E0012172AE4FFFEE5575403FD0B
:100D0E00E478101206B8AD077F1C121726E4FFE533
:100D1E0058FEE4FDFC78081206B8AD077F1D1217C9
:100D2E0026E559FFE4FCAD077F1EFE12172AE4FFED
:100D3E00FEE55B540FFDE478101206B8EF44F0FFA9
:100D4E00AD07AC067F1F7E0012172AE4FFE55CFE9E
:100D5E00E4FDFC78081206B8AD07AC067F207E00D5
:100D6E0012172AE55DFFE4FCAD077F21FE12172A5C
:100D7E007DFF7F227E0012172A7F237E0012172A04
:100D8E00E4FFFEE5575403FDE478101206B8AD07F4
:100D9E00AC067F247E0012172AE4FFE558FEE4FD20
:100DAE00FC78081206B8AD07AC067F257E00121738
:100DBE002AE559FFE4FCAD077F26FE12172AE4FF51
:100DCE00FEE55B540FFDE478101206B8EF44F0FF19
:100DDE00AD07AC067F277E0012172AE4FFE55CFE06
:100DEE00E4FDFC78081206B8AD07AC067F287E003D
:100DFE0012172AE55DFFE4FCAD077F29FE02172AD4
:100E0E00F53085334F85324E85314DF54C7F327E30
:010E1E0000D3
:040E1F008E4A8F4B1D
:100E2300AF4FAE4EAD4DAC4C78761206E4788212DD
:100E330006F0000FFFFF78861206F0017D7840E48C
:100E43007F1AFEFDFC78861206D712057CE4120297
:100E5300A1C004C005C006C00778761206CBE41211
:100E630002A1A804A905AA06AB07D007D006D0059E
:100E7300D004120204788A1206E4788A1206CB128E
:100E830002DF787A1206E4787A1206CBE41202A122
:100E9300C004C005C006C007788A1206CBD003D0B1
:100EA30002D001D000120006788E1206E478821276
:100EB30006CBE41202A1788E1206D71200FB1202AF
:100EC300DF787E1206E4E47F80FEFDFC787E120666
:100ED300D712057C78821206D7120607C004C00514
:100EE300C006C007E47F80FEFDFC787A1206D712A5
:100EF300057CD003D002D001D000EF2BFFEE3AFEE9
:100F0300ED39FDEC38FCE42FFFEE34FEFEED34FF4B
:100F1300FDEC34FFFC78921206E4E47F80FEFDFCD6
:100F2300787E1206D712057C78821206D71206073E
:100F330078821206D712057CC004C005C006C0071C
:100F4300E47F80FEFDFC787E1206D712057CD00379
:100F5300D002D001D000C3EF9BFFEE9AFEED99FDC6
:100F6300EC98FC78961206E4E4FDFCAF4BAE4A1213
:100F7300172AE54B2401FFE4354AFE7DFF12172AA9
:100F8300E54B2402FFE4354AFEC006C007789212FF
:100F930006CBE4FFFEED5403FDE4FC78101206B823
:100FA300AD07AC06D007D00612172AE54B2403FF82
:100FB300E4354AFEC006C00778921206CBE4FFE48C
:100FC300FDFC78081206B8AD07AC06D007D00612B0
:100FD300172AE54B2404FFE4354AFEC006C0077810
:100FE300921206CBE4FCAD07D007D00612172AE510
:100FF3004B2405FFE4354AFEC006C0077896120667
:10100300CBE4FFFEED540FFDE4FC78101206B8EFBD
:1010130044F0FFAD07AC06D007D00612172AE54B04
:101023002406FFE4354AFEC006C00778961206CBB5
:10103300E4FFE4FDFC78081206B8AD07AC06D00760
:10104300D00612172AE54B2407FFE4354AFEC006F3
:10105300C00778961206CBE4FCAD07D007D0060292
:02106300172A4A
:1015DB00C3EE64809480500FE4FCFD0DBD00010C44
:1015EB00ED641E4C70F522EF4E700EFCFD0DBD0030
:1015FB00010CED64B64C70F522EF4E6015E4FBFA6E
:10160B000BBB00010ABA0BF8BBB8F5EF1F70EA1E53
:02161B0080E766
:01161D0022AA
:061576007B057D307F04BF
:10157C008F608B61A905C2B7E56075F00212050298
:10158C00AFF0EF24FF92B5E9A2E492A4A2E592A5F4
:10159C00A2E692A63392A7D2B7E4FFFE1215DBC2E5
:1015AC00B7E560B40402801CE91392A4E9A2E192AD
:1015BC00A5A2E292A6A2E392A7D2B774FFFFFE12F5
:0F15CC0015DBC2B7AF61EF3395E0FE1215DB22DE
:10161E007F147E001215DB7B0912157812157612D7
:10162E0015767B057D207F0412157C7B057D28E4D5
:10163E00FF12157C7B057D0CE4FF12157C7B057D6E
:0F164E0080E4FF12157C7B057D01E4FF02157C13
:09177D007B027D01E4FF02157CF2
:08178F00E4FB7D0CFF02157C58
:101743008D5FE55FBF01042480800224C0FDE4FBBC
:05175300FF12157C22CD
:09178600AD07E4FB7F0102157CB4
:0B165D007A15794B7BFFE4F55E7D02FF
:101668008B5A8A5B895CAF05AD5E121743AB5AAAE9
:101678005BA95C120524FD6014E4FB7F0112157C54
:0E1688007401255CF55CE4355BF55B80E022C7
:1013B100E4FFE50F704330B20830B305F5080214BD
:1013C1006420B20930B306E5087002805E30B209CC
:1013D10020B306E5087002806D30B2030214643058
:1013E100B303021464E508F46079E508B44C0280A3
:1013F10064E5086452706C8065E50F6401706430C7
:10140100B20830B305750801805920B20820B30530
:10141100E4F508804E20B20930B306E508640160A6
:101421000A30B20C20B309E5087005750852803303
:1014310030B20920B306E5086401600A20B20C301D
:10144100B309E508700575084C8018E508F46013C8
:10145100E508B44C047FFF8007E508B452057F011D
:101461007508FF208713EF70047F02800CBF010411
:091471007F038005BFFF027FFD2F
:01147A00224F
:10170800E47F0AFEFDFCAB0EAA0DA90CA80BC312C0
:0E17180006A77009750E64F50DF50CF50B2291
:1012A200C3E533952FFFE532952EFEE531952DFDF1
:1012B200E530952CFCEF24DCFFEE3405FEE43DFD29
:0A12C200E43CFCE41202A11202DF7A
:0812CC008F4D8E4C8D4B8C4AB6
:1012D4007B407A42790F78001206078E568F577B2F
:1012E400407A42790F7800AF4DAE4CAD4BAC4A1208
:1012F4000607AC00AD01AE02AF03E47BE87A03F964
:10130400F81206078E588F59D3E5579407E556947B
:1013140000403F755DFF755E15755F0785566085F6
:1013240057617B007A00794E12079B7B007A007923
:101334004E755E037D021216687BFF7A15790A7575
:101344005E057D02121668755DFF755E15755F0C8E
:10135400803D755DFF755E15755F12855660855716
:10136400617B007A00794E12079B7B007A00794EEC
:10137400755E037D021216687BFF7A15790A755E25
:10138400057D02121668755DFF755E15755F16851D
:1013940058608559617B007A00794E12079B7B0067
:0C13A4007A00794E755E067D0212166814
:0113B000221A
:101065007525DC752406752362752201E4F529F5DD
:1010750028F527F526F52A752B0A752F40752E5468
:10108500752D89F52C7533747532E17531F4F530AC
:101095007537DC753606753562753401753BAC758B
:1010A5003A1A753960753801753C01753D01753E13
:1010B50001F53F754001F541C200D2B2D2B3D290DD
:1010C500D291D292D293C2B6759108F59112161E9D
:1010D50012178F12177D7BFF7A15791BE4F55E7D5C
:1010E500011216687A1579281216617FE87E0312B7
:1010F500169612177D7BFF7A157932E4F55E7D0130
:101105001216687BFF7A15793C1216637F10121749
:10111500861212A2120BAE852F4F852E4E852D4DB0
:10112500852C4C7F2A7E00120E1F85334F85324E4B
:1011350085314D85304C120E1B208703E4F53EE5C5
:101145003E7038E53F7017753F0112177D7BFF7ABA
:10115500157940E4F55E7D0112166812165D1213CD
:10116500B18F09E509B4010312165DE509B4FFC99C
:101175007BFF7A15795B12166380BE1213B18F0956
:10118500E509B4011C050AE53324E8F533E53234F5
:1011950003F532E43531F531E43530120E0E121215
:1011A500A2E509B4FF1F150AC3E53394E8F533E555
:1011B500329403F532E5319400F531E530940012AF
:1011C5000E0E1212A2E5096403702C150A7D057F27
:1011D50002121743755DFF755E15755F6B850A60B5
:1011E5007B007A00794212079B7B007A0079427571
:1011F5005E057D02121668E509B4FD25150A755DC3
:10120500FF755E15755F6B850A607B007A00794214
:1012150012079B7B007A007942755E057D011216E7
:1012250068209002D200209110C2007BFF7A1579C8
:101235006E755E067D011216683000157D067F010C
:101245001217437BFF7A157972755E067D011216BA
:10125500682092197BFF7A157972755E067D0112F9
:1012650016687F107E937D6B7C001212CC30930341
:1012750002113E7BFF7A15796E755E067D011216A9
:10128500687F307EBE7DD97C001212CC7B007A004F
:0D1295007942755E057D0112166802113E5A
:1000030002034BE86480F8E933E83360110460F0DD
:10001300ED33EC337009E8FCE9FDEAFEEBFF220463
:1000230060DED3EB9FEA9EE99DE8C2E78CF0C2F75E
:1000330095F0400CE8CCF8E9CDF9EACEFAEBCFFB2A
:1000430012031685D0F05804700320D5B3E804706A
:10005300075002B2D502035592D5EC0460F7E4CC05
:10006300C0E0C398F8603B94186008400DD0E0FBF3
:1000730002032DE4FBFAC9FC8028E830E406E4C956
:10008300FBE4CAFCE830E305E4C9CACBFCE8540747
:100093006010F8C3E913F9EA13FAEB13FBEC13FC52
:1000A300D8F130F52FC3E49CFCEF9BFFEE9AFEEDF5
:1000B30099FDD0E0FBEF4E4D4C701222DB0302039F
:1000C30052EC2CFCEF33FFEE33FEED33FDED30E766
:1000D300EB02032DEF2BFFEE3AFEED39FDD0E0FBF3
:1000E30050130BBB0003020355ED13FDEE13FEEF9C
:0800F30013FFEC13FC02032DC6
:1000FB00EC4D6011E8497017ED33EC3304600DE4FF
:10010B00FCFFFEFD22E933E8330470F802034B12C7
:10011B00031658046009E4CC2481500628500902C8
:10012B000355284003020352C0E0EB4A7044B980E8
:10013B0006D0E0FB020341EF4E701CBD8008EBFFC5
:10014B00EAFEE9FD80EBE98DF0A4FEE5F00201E4A7
:10015B00E9CDF9EAFEEBFFEF89F0A4FCE5F0CE89DF
:10016B00F0A42EFFE435F0CD89F0A42DFEE435F09C
:10017B008067EF4E7005BD80D780C3EF8BF0A4ACCA
:10018B00F0EE8BF0A42CFCE435F0F8EF8AF0A42C05
:10019B00E5F038FCE433CB8DF0A42CFCE5F03BF818
:1001AB00EE8AF0A42CFCE5F038F8E433CF89F0A408
:1001BB002CFCE5F038CF3400CE89F0A42FFFE5F00E
:1001CB003EFEE433C98DF0A42EFEE5F039CD8AF066
:1001DB00A42FFFE5F03EFEE43DFD33D0E0FB5007DE
:1001EB000BBB000F020355EC2CFCEF33FFEE33FE81
:0601FB00ED33FD02032DAF
:10020100020355EC5D046005E85904700302034BD9
:10021100120316580460F6EC4860F2EC7004FDFE1F
:10022100FF22C860DB2481C85009C39860025006D0
:100231000203529850CAF582E9294B4A7005AB82F4
:1002410002034175F0007C1A7880C3EF9BEE9AEDB2
:1002510099400DC3EF9BFFEE9AFEED99FDE842F048
:10026100DC23ACF0D0E0FFD0E0FED0E0FDAB82209B
:10027100E7101BEB60BAEC2CFCEF33FFEE33FEED25
:1002810033FD02032DE803F830E705C0F075F000F7
:10029100EF2FFFEE33FEED33FD40B830E7C280AA09
:1002A10075F020800E75F010800575F0087D007ED8
:1002B100007F003392D530D503120699EC334010FC
:1002C100EF33FFEE33FEED33FDEC33FCD5F0ED22E1
:0E02D100E5F0247EA2D513CC92E7CDCEFF221D
:1002DF00EDD2E7CD33EC3392D524814006E4FFFE17
:1002EF00FDFC22FCE4CFCECDCC24E0501174FF8076
:1002FF00EDC3CC13CCCD13CDCE13CECF13CF047013
:07030F00F030D5DE02069973
:10073F00E571245DF8E6057122785A300802785D7C
:10074F00E475F0011207090205242001EB7F2ED278
:10075F00018018EF540F2490D43440D4FF30050B90
:10076F00EF24BFB41A0050032461FFE57260021535
:10077F00720575E5757002057430080D785AE475C9
:10078F00F001120709EF02056A0216BD7403D208C1
:10079F008003E4C208F5718B5A8A5B895CE4F572B9
:1007AF00F574F575E57260077F2012077A80F5758D
:1007BF0073FFC202C201C203C204C206C207C2094A
:1007CF00120748FF700D3008057F0012078BAF75B9
:1007DF00AE7422B4255FC2D5C205120748FF24D0DC
:1007EF00B40A00501A75F00A787230D50508B6FFB2
:1007FF000106C6A426F620D5047002D20480D9249F
:10080F00CFB41A00EF5004C2E5D205020A78D20223
:10081F0080C6D20180C0D20380BCD2D580BAD206A6
:10082F0080B47F2012077A2003077401B57200404D
:10083F00F112073FFF12077A0207B3D209D20780DE
:10084F009512073FFB12073FFA12073FF94A4B7009
:10085F0006796F7A0B7BFF20032EE572602A7E00EC
:10086F008E8275830012053D60060EEE657370F083
:10087F00C2D5EBC0E0EAC0E0E9C0E0EE120AD8D082
:10088F00E0F9D0E0FAD0E0FB120524FF60AAEBC03C
:10089F00E0EAC0E0E9C0E012077AD0E02401F9D025
:1008AF00E03400FAD0E0FBE5730460DCD573D98047
:1008BF0087D20380A2120ABB60F7E573700104129E
:1008CF000360A973600DE573600914F573120B6271
:1008DF00EF60F3EA30E702F404C3995077EAF425A6
:1008EF00730430E701E404F573800D120ABB60C195
:1008FF00EA05732573120360EA7870F630E701E4B6
:10090F00257304D5730420060114120AD8E4C0E03D
:10091F00120B627870E6601320E70714F612076275
:10092F00802204F6D0E014C0E07F00120762E57366
:10093F0060071207591573800B300603120759D041
:10094F00E00207B3D0E00480C5120ABB60A0E573D4
:10095F00041203607870EAF6E57320060260010462
:05096F002404120AD867
:1009740074FF04C0E0120B62120762E573200602E2
:100984006003120759D0E0B573E87F4512076C780D
:1009940070E67F2B30E7047F2DF404C0E012077A61
:1009A400D0E075F00A84C0F0120763D0E012076348
:1009B4000207B3791080027908C207C2098008D2FD
:1009C400D5790A8004790AC2D5E573047002F573F7
:1009D400E4FAFDFEFF12073FFC7B08200213120716
:1009E4003FFD7B1030010A12073FFE12073FFF7BD9
:1009F40020EC3382D592D55013C3E43001069FFF17
:100A0400E49EFEE42002039DFDE49CFCE4CBF8C2DA
:100A140002EC700CCFCECDCCE824F8F870F380173C
:100A2400C3EF33FFEE33FEED33FDEC33FCEB33FB6E
:100A3400994002FB0FD8E9EB300205F8D0E0C44836
:100A4400B202C0E00AEC4D4E4F78207B0070C2EA3F
:100A5400B5730040BCC0E0120ADAD0F0D0E0200246
:100A640004C4C0E0C4B202C0F0120763D0F0D5F0F1
:100A7400EB0207B312071908505309B75808214C61
:100A8400081D4209BB4F09C34409C3490836430939
:100A9400C95508FA4609584508C4470B8F5008251C
:100AA4002D08292E084C2B082D23084A200B782AC0
:100AB40007E54800000844E573B4FF0375730612A4
:100AC400073FFC12073FFD12073FFE12073FFF7866
:100AD4006902038F790AA2D5200414300609B910DB
:100AE400020404B9080104A2D5200702500104201D
:100AF40003689203B572005034C0E07F20300419BB
:100B04007F30A20372077206500F120B31C203C268
:100B140007C206C2097F30800F300603E9C0E01225
:100B2400077A300603D0E0F9D0E0B572CC3006176E
:100B34007F30B9100C12077A7F583005077F788010
:100B440003B9080312077A3003057F2D02077A7F61
:100B5400202009F87F2B2007F322920380CF7F0007
:100B6400B4070050052469F8E6FF22286E756C6C02
:100B74002900D20212073F3002F8C202787230D53F
:100B84000108F60207E52D5043495812073F240394
:100B9400B405004001E4900B8A9312076B743A1277
:0A0BA400076BD2047572040209B752
:10031600E9D2E7C933E833F892D5EDD2E7CD33EC2D
:0703260033FC5002B2D522A6
:10032D00EC30E7100FBF000C0EBE00080DBD000431
:10033D000BEB6014A2D5EB13FCED92E7FD2274FFDD
:10034D00FCFDFEFF22E480F8A2D574FF13FC7D8036
:03035D00E480EF4A
:10036000F920E72824F950037907E4F42402FB1864
:10037000DBFDE624FB5014E9600DE4F618E604F614
:0F038000B40A08E4F6D9F57401F60A22C2D522B0
:10038F00ED33EC3392D5FA602AB4FF33EDC2E77B3D
:10039F00FF60067A0379B4E4227A0379BD20D5048D
:1003AF007A0379B8224E614E002B494E46002D49F3
:1003BF004E4600E47A08F608DAFC7B00740722E860
:1003CF00C0E0ECC0E0EDC0E0EEC0E0EFC0E0EA75E9
:1003DF00F010A4CAABF075F04DA42BFBE435F0FC84
:1003EF00EA2410FAEB34C5FBEC34D9FCEDC2E7FF7D
:1003FF0075F056A4F42411C5F0F434C58FF0A42A77
:10040F00E5F03BE43CF620E7141204C2D0E0FFD045
:10041F00E0FED0E0FDD0E0FC1202048014F40412E0
:10042F0004C2D0E0FFD0E0FED0E0FDD0E0FC12002F
:10043F00FBD0E0F8E6FAEDD2E7CD33EC332482FBC4
:10044F00E4C3CF33CFCE33CECD33CD33DBF37B0706
:10045F0075F00A846004F6081B0AE5F0F6088FF0C1
:10046F00740AA4FFACF08EF0740AA42CFEACF0500A
:10047F00010C8DF0740AA42CFDE435F0F608DBDED8
:03048F00740722CD
:100492003F8000004120000042C80000447A000072
:1004A200461C400047C35000497424004B189680F4
:1004B2004CBEBC205A0E1BCA6753C21C749DC5AEEB
:1004C200FB60065407601C23231204F0EB543860CF
:1004D200091204DC1204EB1200FBECF8EDF9EEFA5F
:1004E200EFCB22EB1204EB80F1543803241C90046E
:1004F20092FE93FC0EEE93FD0EEE930ECE93FF2230
:0300000002147B6C
:0C147B00787FE4F6D8FD7581990214C258
:10050200C2D530F707B2D563F0FF05F030E70CB281
:10051200D5F4048463F0FF05F080018430D502F441
:020522000422B1
:10052400BB010689828A83E0225002E722BBFE02D5
:09053400E32289828A83E4932208
:10053D00BB010CE58229F582E5833AF583E0225073
:10054D0006E92582F8E622BBFE06E92582F8E222BD
:0D055D00E58229F582E5833AF583E49322D7
:10056A00BB010689828A83F0225002F722BBFE0170
:02057A00F3226A
:10057C00E88FF0A4CC8BF0A42CFCE98EF0A42CFC1E
:10058C008AF0EDA42CFCEA8EF0A4CDA8F08BF0A49C
:10059C002DCC3825F0FDE98FF0A42CCD35F0FCEBFB
:1005AC008EF0A4FEA9F0EB8FF0A4CFC5F02ECD39C0
:0F05BC00FEE43CFCEAA42DCE35F0FDE43CFC222D
:1005CB0075F008758200EF2FFFEE33FECD33CDCCE7
:1005DB0033CCC58233C5829BED9AEC99E58298406A
:1005EB000CF582EE9BFEED9AFDEC99FC0FD5F0D647
:1005FB00E4CEFBE4CDFAE4CCF9A88222B800C1B971
:10060B000059BA002DEC8BF084CFCECDFCE5F0CBAE
:10061B00F97818EF2FFFEE33FEED33FDEC33FCEBE7
:10062B0033FB10D703994004EB99FB0FD8E5E4F9A2
:10063B00FA227818EF2FFFEE33FEED33FDEC33FC8F
:10064B00C933C910D7059BE99A4007EC9BFCE99A83
:10065B00F90FD8E0E4C9FAE4CCFB2275F010EF2FC8
:10066B00FFEE33FEED33FDCC33CCC833C810D707C8
:10067B009BEC9AE899400AED9BFDEC9AFCE899F803
:0E068B000FD5F0DAE4CDFBE4CCFAE4C8F92296
:0E069900C3E49FFFE49EFEE49DFDE49CFC2272
:1006A700EB9FF5F0EA9E42F0E99D42F0E89C45F0A9
:0106B7002220
:1006B800E8600FECC313FCED13FDEE13FEEF13FF20
:0306C800D8F12244
:0C06CB00E6FC08E6FD08E6FE08E6FF225B
:0D06D700E6FB08E6F908E6FA08E6CBF82293
:0C06E400ECF608EDF608EEF608EFF62242
:1006F000D083D082E493F608740193F608740293D1
:09070000F608740393F674047307
:10070900FAE6FB0808E6F925F0F618E6CA3AF622F1
:10071900D083D082F8E4937012740193700DA3A36F
:1007290093F8740193F5828883E473740293686083
:06073900EFA3A3A380DF83
:1016BD00EFB40A07740D1216C8740A309811A89960
:1016CD00B8130CC2983098FDA899C298B811F6308D
:0716DD0099FDC299F5992265
:10148700021065E493A3F8E493A34003F68001F206
:1014970008DFF48029E493A3F85407240CC8C33366
:1014A700C4540F4420C8834004F456800146F6DF35
:1014B700E4800B0102040810204080901758E47E56
:1014C700019360BCA3FF543F30E509541FFEE4932A
:1014D700A360010ECF54C025E060A840B8E493A3F1
:1014E700FAE493A3F8E493A3C8C582C8CAC583CA1C
:1014F700F0A3C8C582C8CAC583CADFE9DEE780BED4
:01176A00007E
:00000001FF
